S0190000426C652063656E7472616C206465766963652E7333372F
S214012000C00A0020113C0100533F0300533F030068
S2140120106F500300533F0300533F0300533F030039
S214012020533F0300533F0300533F0300533F030056
S214012030533F0300E4FF0300393D0300533F030011
S214012040533F0300533F0300533F0300533F030036
S214012050533F0300533F0300533F0300533F030026
S214012060533F0300533F0300533F0300533F030016
S2140120705D8A0100533F0300533F030055350100BD
S214012080EF3D0300533F0300533F0300533F03005C
S214012090533F030041430100533F0300533F0300F6
S2140120A0533F0300533F0300533F0300533F0300D6
S2140120B0533F0300F9150300533F03005520030067
S2140120C02BE7030027E703004518030037E7030063
S2140120D02FE703002D20030033E7030095200300BC
S2140120E02DF90200F1FA020005210300533F030017
S2140120F0533F0300533F0300533F0300533F030086
S214012100533F0300533F0300533F0300533F030075
S214012110533F0300533F0300533F0300533F030065
S214012120533F0300533F0300533F0300533F030055
S214012130533F0300533F0300533F0300533F030045
S214012140013800D0FCE77047002370B5404C0546C7
S2140121508AB0E36318B1008823600DF023FC3D4884
S2140121602BF08AFD3C4E3D4B304633603C4B736052
S21401217027F0F6F90021304619F060F932A3D3E9C9
S2140121800023A062C4E9062327F0F5F9D4E9062363
S21401219019431043C4E90601CDE900014FF0FF33AE
S2140121A04FF0FF32A06A2BF0E2FD02224FF0FF3122
S2140121B0A06A2BF0E1FD01200DF0F6F84FF4007354
S2140121C000222849A06A2BF02BFEB0F5007F38D1FB
S2140121D000239422CDE9073309933C23CDE903324A
S2140121E005939623A06A03A9069319F045FA35B319
S2140121F0287C0DF095FD0546F0B9A06A2BF0F1FE9E
S2140122000DF03CFD0DF0B2F820B14FF480700021C6
S21401221009F0BAFE0DF0BAF820B14FF400600021C3
S21401222009F0B2FE27F082FA012019F05BF90E4A96
S2140122300E49A06A27F092F928460AB070BDFF2021
S214012240D7E70725F8E700BF0DD5015520000000A8
S214012250580F0020690345EC582100202DF201009B
S21401226068210020581F00200595030045950300AE
S2140122700348044B834202D0034B03B1184770470F
S214012280E40E0020E40E002000000000064B074983
S214012290C91A891048BF0131491003D0044B0BB14C
S2140122A001481847704700BFE40E0020E40E0020E6
S2140122B00000000010B5064C237843B9FFF7D8FF9D
S2140122C0044B13B10448AFF300800123237010BD03
S2140122D03E29002000000000244A040008B5054BF2
S2140122E01BB105490548AFF30080BDE80840FFF77C
S2140122F0CDBF00BF00000000B8110020244A040032
S214012300A3F5803A704700BF174B002B08BF134B4D
S2140123109D46FFF7F5FF00218B460F461348144AEA
S214012320121A2CF0EBFA0E4B002B00D098470D4BEF
S214012330002B00D098470020002104000D000D4816
S214012340002802D00C48AFF3008020F097FB200055
S214012350290021F0E5FC20F0F1F800BF000008009C
S2140123600000000000000000C00A0020E40E00206B
S214012370EC2A0020000000000000000030B5714A81
S214012380714B93B0CDE90323704A71490892714AA3
S214012390714B1278CDE9053130328DF8242044F6A0
S2140123A0084243F63153ADF826206C4AADF81C308E
S2140123B00A926B4A6B4B12781B7830328DF82C20C0
S2140123C046F6616230338DF81E304623ADF82E2076
S2140123D043F632528DF81F308DF82D308DF83B3094
S2140123E0614BADF830200F93604B614A1B78127831
S2140123F030338DF84030032330328DF8322043F6E7
S21401240033520D208DF8413040F2FF23ADF83820CD
S214012410584A8DF8250012788DF8330030320D9128
S2140124208DF83A20ADF842300423534D02220121A3
S21401243028788DF8443011F07BF93921287803AAE1
S21401244011F08CF9044618B34C4D4D49286822F01A
S21401245056FC4C49286822F052FC21F013FD21F06D
S21401246012FD494B494A0093494940F2ED13286849
S21401247022F045FC47492346474A286822F03FFC9C
S214012480204601F0D1F94549286822F038FCFEE7DC
S214012490A022009003461146287811F027F9044639
S2140124A018B3364D3649286822F029FC3549286884
S2140124B022F025FC21F0E6FC21F0E5FC324B334A04
S2140124C0009333494FF4FB73286822F018FC314916
S2140124D02346314A286822F012FC204601F0A4F96E
S2140124E02E49286822F00BFCFEE7024601462878B2
S2140124F011F04AF9054618B3204C2149206822F00C
S214012500FEFB2049206822F0FAFB21F0BBFC21F0FB
S214012510BAFC1D4B1D4A00931D494FF4FE732068FB
S21401252022F0EDFB1B492B461B4A206822F0E7FBF5
S214012530284601F079F91949206822F0E0FBFEE708
S21401254013B030BD020106070953696C616E313D57
S214012550084C6564B02900206C61620D6564323DEB
S214012560AF290020B1290020616E333DAC2900203F
S214012570AE290020AD290020E30C00209012002097
S214012580E1FB030040F8030047FC030045F80300A5
S2140125904EF803005DF803005AF8030072F80300D2
S2140125A037B5174811F08AF8054618B3154C164981
S2140125B0206822F0A4FB1549206822F0A0FB21F038
S2140125C061FC21F060FC124B124A0093124940F262
S2140125D00523206822F093FB10492B46104A2068F9
S2140125E022F08DFB284601F01FF90E49206822F0E3
S2140125F086FBFEE703B0BDE83040FFF7BFBE00BF75
S214012600E30C002090120020E1FB030040F80300D9
S21401261035FC030045F803004EF803005DF803009F
S2140126205AF8030072F803002DE9F04FBBB00368B7
S214012630AB4A23F47F4323F007039342044606AFD5
S21401264000F05C8359D8A74A934200F033820DD834
S214012650A2F5A022934200F0838002F580229342E5
S21401266000F0A281D437BD46BDE8F08F9E4A934262
S214012670F8D19E4C8379E27F9A4240F0FB8421F0A8
S21401268001FC21F000FC9A4B9A49186822F037FBAE
S214012690002384F82030984A1378002B40F00785F1
S2140126A00121084611F080F9944D2860002800F0B9
S2140126B077818F4C9249206822F021FB914920684E
S2140126C022F01DFB21F0DEFB21F0DDFB8E4B8F4A55
S2140126D000938F4940F29B13206822F010FB8D492E
S2140126E02B688D4A206822F00AFB286801F09CF8C6
S2140126F08A49206822F003FBFEE7894A934200F0EC
S214012700448302F10072934200F0B28302F17C42EC
S2140127109342A7D1237AB0F80500022BA2D14FF637
S2140127200173B4F809209A4200F02D834FF6027324
S2140127309A4297D101237B4921F813007A4907F180
S2140127406C0020F01BF921F09DFB21F09CFB684BEF
S21401275007F16C01186822F0D2FA0422734B21E1CA
S214012760FFF71EFF6189E388A28801912189604CE9
S21401277000916F4E6F4907F1080020F0FFF821F035
S21401278081FB21F080FB206807F1080122F0B7FAEF
S214012790337853BB6849694811F01AF9054610B3F6
S2140127A05749206822F0ABFA5649206822F0A7FA6A
S2140127B021F068FB21F067FB614B544A00935449B2
S2140127C040F2BF13206822F09AFA52492B46524A29
S2140127D0206822F094FA284601F026F84F4920682E
S2140127E022F08DFAFEE7012333705449524B0A78E2
S2140127F018784B7904924A78404D03928A7802926F
S214012800CA7801920A794F4900924F4A002818BFA8
S2140128100A464E4907F16C0020F0B0F821F032FB71
S21401282021F031FB07F16C01206822F068FAA02242
S2140128304FF4A071002011F093F80246286008B307
S2140128402F49206822F05BFA2E49206822F057FAB9
S21401285021F018FB21F017FB2B4B2C4A00932C4937
S2140128608F23206822F04BFA2A492B682A4A2068CF
S21401287022F045FA286800F0D7FF2849206822F0A0
S2140128803EFAFEE74FF6FF735021CDE900036423BD
S214012890084610F091FF2860002859D01849206892
S2140128A022F02DFA1749206822F029FA21F0EAFAD7
S2140128B021F0E9FA144B154A00931549982320682C
S2140128C022F01DFA13492B68134A206822F017FAE2
S2140128D0286800F0A9FF1149206822F010FAFEE7E7
S2140128E0A0000901A0000600A0000601472900205B
S2140128F090120020BAFB0300AA290020D411002060
S214012900E1FB030040F8030080FC030045F80300E8
S2140129104EF803005DF803005AF8030072F803004E
S214012920A0000904E428002064FA0300AB29002073
S214012930462900209FF803003F2900204029002057
S2140129405FFC030083F8030091F80300C6F8030058
S2140129500121084611F028F8286008B3A349206829
S21401296022F0CDF9A249206822F0C9F921F08AFAAD
S21401297021F089FA9F4BA04A0093A0499C23206826
S21401298022F0BDF99E492B689E4A206822F0B7F9CD
S214012990286800F049FF9C49206822F0B0F9FEE75C
S2140129A000229A4B1A705DE60026837DDFF890922E
S2140129B000F1170A7B607B689E42BFF453AE0AEBB8
S2140129C006035B781AF80650082B6FD1AB1D03F48B
S2140129D0FC73EB46ADEB030D0DF11808B11C6A1E36
S2140129E0514440463A602BF09EFF00233A68404629
S2140129F0874908F802302BF08CFFE8B9786021F09F
S214012A0041FA21F040FA8349D9F8000022F077F91B
S214012A1010F0BEFFE27A80490091A17A607A7B6865
S214012A2040EA0120194660F30F010123D4F805009E
S214012A3010F0E6FEDD4615E6404678492BF069FFC4
S214012A4070B9786021F01EFA21F01DFA7449D9F8A0
S214012A50000022F054F910F09BFFE27A7149DBE79F
S214012A60404671492BF055FF8046A8B921F00AFA75
S214012A7021F009FA6D49D9F8000022F040F910F06A
S214012A8087FF6B4BE27A0093A17A637A43EA0123CC
S214012A90414663F30F01C8E721F0F4F921F0F3F999
S214012AA06449D9F8000022F02AF9DD46013535449B
S214012AB0EEB280E7604E057BF37F604CAB420BD1F4
S214012AC021F0E0F921F0DFF95D4B5E49186822F04C
S214012AD016F923780133237096F84030AB420BD1B8
S214012AE021F0D0F921F0CFF9554B5749186822F05B
S214012AF006F923780133237096F86130AB420BD187
S214012B0021F0C0F921F0BFF94D4B5049186822F069
S214012B10F6F8237801332370012523783B4E022BE8
S214012B20357033D8464C21F0ADF921F0ACF948495F
S214012B30206822F0E4F82946284610F035FF454D76
S214012B40286000283FF42CAF2849206822F0D7F8E7
S214012B502749206822F0D3F821F094F921F093F95F
S214012B60244B254A00932549E823206822F0C7F81C
S214012B7023492B68234A206822F0C1F8286800F010
S214012B8053FE2149206822F0BAF8FEE710F000FF54
S214012B904FF00008DFF8A090DFF8C4A02D4D237891
S214012BA0434520DD5246022199F81F0010F068FEC9
S214012BB02528286079D1022000F0F0FD60B1204C74
S214012BC02549206822F09BF821F05CF921F05BF999
S214012BD02249206822F093F80121084610F0E4FE0D
S214012BE0286000283ED1032333703BE5E1FB030058
S214012BF040F8030080FC030045F803004EF803008C
S214012C005DF803005AF8030072F80300AB290020B0
S214012C10FBF8030003F903006629002021F90300ED
S214012C2029F903008729002047F903004FF903001B
S214012C30A82900206DF9030047290020AA290020B1
S214012C40901200207FF9030096F90300ADF9030006
S214012C50C4F90300D4110020D7F90300DCF90300FE
S214012C608FFC0300A04CA149206822F048F8A04937
S214012C70206822F044F821F005F921F004F99D4B73
S214012C809D4A00939D49F423206822F038F89C4918
S214012C902B689C4A206822F032F8286800F0C4FDB0
S214012CA09949206822F02BF8FEE709F1210910B3B3
S214012CB08D4C8E49206822F022F88D49206822F03A
S214012CC01EF821F0DFF821F0DEF88A4B8A4A0093DD
S214012CD08A49F923206822F012F889492B68894A23
S214012CE0206822F00CF8286800F09EFD86492068CE
S214012CF022F005F8FEE708F1010850E7D0F80520B4
S214012D00824B794D1A6014F8098F21F0BBF821F037
S214012D10BAF87F49286821F0F2FF0026DFF83892DA
S214012D20DFF838A2464510D321F0ACF821F0ABF815
S214012D306E49286821F0E3FF21F0A4F821F0A3F8FA
S214012D407449286821F0DBFF8CE4494614F8012F0A
S214012D5007F16C001FF012FE21F094F821F093F8B1
S214012D60286807F16C0121F0CAFF08F1FF33B3426E
S214012D7007D921F087F821F086F85146286821F016
S214012D80BEFF0136CEE70023D5E463490279B0F8E9
S214012D900530C87F544D90421ED1604806889E4239
S214012DA00BD121F06FF821F06EF8E27A5C492868C1
S214012DB021F0A5FFE27A5B4BF4E5408898420BD1FF
S214012DC021F060F821F05FF8E27A5749286821F08F
S214012DD096FFE27A554BE5E591F8400090421ED108
S214012DE04E4806889E420BD121F04CF821F04BF854
S214012DF0E27A4F49286821F082FFE27A4D4BD1E50D
S214012E00408898420BD121F03DF821F03CF8E27A57
S214012E104949286821F073FFE27A484BC2E591F8E8
S214012E20611091421ED13D4A118899420BD121F081
S214012E3029F821F028F8E27A4149286821F05FFF55
S214012E40E27A404BAEE552889A420BD121F01AF84D
S214012E5021F019F8E27A3C49286821F050FFE27A1D
S214012E603A4B9FE521F00EF821F00DF8384968E756
S214012E70384D04792B78032B40F0D880264EF37F0B
S214012E809C426FD1214B2046196810F00FFDDFF8E8
S214012E90D080C8F80000002864D0134C134920687D
S214012EA021F02DFF1249206821F029FF20F0EAFFCA
S214012EB020F0E9FF0F4B104A0093104940F25F13D0
S214012EC0206821F01CFF0E49D8F800300D4A206812
S214012ED021F015FFD8F8000000F0A6FC0A4920688A
S214012EE021F00DFFFEE700BF90120020E1FB03007A
S214012EF040F8030080FC030045F803004EF8030089
S214012F005DF803005AF8030072F80300D0110020A0
S214012F1023FA030044FA030047290020E42800208E
S214012F2097FA0300B1290020C1FA0300B029002056
S214012F30EBFA0300AF29002015FB0300AE290020A1
S214012F403FFB0300AD29002069FB0300AC290020EC
S214012F5093FB0300AB2900203DFA030042FA03006D
S214012F60D411002096F840309C422FD1544B204675
S214012F70196810F09BFCDFF87081C8F8000028B3D0
S214012F80504C5149206821F0BAFE5049206821F082
S214012F90B6FE20F077FF20F076FF4D4B4D4A0093AA
S214012FA04D4940F26313206821F0A9FE4B49D8F839
S214012FB000304B4A206821F0A2FED8F8000000F04D
S214012FC033FC4849206821F09AFEFEE796F8613006
S214012FD09C422BD13A4B2046196810F067FC424EB2
S214012FE0306018B3374C3849206821F088FE3749DD
S214012FF0206821F084FE20F045FF20F044FF344B8A
S214013000344A0093344940F26713206821F077FE72
S21401301032493368324A206821F071FE306800F088
S21401302003FC3049206821F06AFEFEE72B78042B6A
S2140130307FF418AB2D4BDA7F94420DD12C4B2A4DE1
S21401304019782C4A91B1002119701188204610F088
S21401305043FC2860FFF706BB93F840209442EDD06E
S21401306093F861309C427FF4FDAAE7E701211970CD
S2140130705188EBE794F840209A420DD120F002FFE8
S21401308020F001FF1C490F4B186821F038FE002381
S21401309084F84130FFF7FFBA94F861209A427FF432
S2140130A0FAAA20F0EFFE20F0EEFE1449EBE7013B12
S2140130B0DBB2022B13703FF6D5AAFFF7F1BA00BFB9
S2140130C0D011002090120020E1FB030040F803001D
S2140130D080FC030045F803004EF803005DF803008A
S2140130E05AF8030072F80300D41100204729002083
S2140130F0E20C0020E4280020E3FB03000CFC0300A4
S21401310030B503687C4A23F47F4323F007039342D8
S21401311089B040F0EE80082200211220774B10F093
S214013120F1FB044610B3764D7649286821F0E7FD99
S2140131307549286821F0E3FD20F0A4FE20F0A3FEE7
S214013140724B734A009373493D23286821F0D7FDDB
S21401315071492346714A286821F0D1FD204600F0C6
S21401316063FB6F49286821F0CAFDFEE7014603228A
S21401317014206C4B10F0C6FB044610B3604D614939
S214013180286821F0BCFD6049286821F0B8FD20F0D0
S21401319079FE20F078FE5D4B5D4A00935D494B2336
S2140131A0286821F0ACFD5C4923465C4A286821F07A
S2140131B0A6FD204600F038FB5949286821F09FFDFE
S2140131C0FEE7014605221620574B10F09BFB0546ED
S2140131D010B34B4C4B49206821F091FD4A492068B9
S2140131E021F08DFD20F04EFE20F04DFE474B484A63
S2140131F0009348495923206821F081FD46492B4612
S214013200464A206821F07BFD284600F00DFB444924
S214013210206821F074FDFEE70DF10F0104A810F0FF
S214013220D7FB044610B3364D3649286821F067FDB2
S2140132303549286821F063FD20F024FE20F023FEA6
S214013240324B334A009333496423286821F057FDF3
S21401325031492346314A286821F051FD204600F0C5
S214013260E3FA2F49286821F04AFDFEE7BDF814303D
S21401327001465BBAADF818309DF8133008228DF878
S2140132801A30FF238DF81B30FE238DF81C309DF875
S214013290123018208DF81D30BDF810305BBAADF82D
S2140132A01E3006AB10F02EFB054610B3144C154924
S2140132B0206821F024FD1449206821F020FD20F02B
S2140132C0E1FD20F0E0FD114B114A009311497423F2
S2140132D0206821F014FD10492B46104A206821F081
S2140132E00EFD284600F0A0FA0D49206821F007FDE2
S2140132F0FEE709B030BD00BFA000010091FC03004D
S21401330090120020E1FB030040F80300CCFC030010
S2140133109AFC03004EF803005DF803005AF8030018
S21401332072F80300C2FC0300C6FC030010B5234C70
S21401333001F010FB01F030FD236F23F0070343F08B
S2140133400303236720F057FF1D4B00209B6A9B0752
S2140133505EBF01221B4B9A62D4F8203123F003038F
S21401336043F00203C4F82031D4F8243123F00703D4
S21401337043F00203C4F82431D4F8403123F00303A8
S21401338043F00203C4F84031D4F8603123F003035C
S21401339043F00203C4F86031D4F8403223F003034B
S2140133A043F00203C4F84032D4F8003223F0070396
S2140133B043F00203C4F8003210BD00BF0080005085
S2140133C000C0005000E0005008B502F07FF8012868
S2140133D00ED1144B04205A6E4FF480231249520327
S2140133E058BF124A4B6601F51041086258BF536632
S2140133F003F044FF20F05EFD03F0D0FE03F028FF4B
S21401340003F0EEFE21F02AFCFFF790FF03F0D6FE54
S21401341020F045FD00F0B6FC00F0CCFFBDE808400A
S21401342004F098BB008000500090005000A00050AF
S21401343030B5224D95B00DAC0FCD0FC495E8070001
S214013440032384E807008DF84D3029231C4A1D49C3
S214013450CDE902231C4B0E22CDE904134FF48073F1
S21401346000210DF1260006932BF048FA4FF4A02018
S214013470164B07A9CDE907030F238DF82430102337
S2140134808DF82530124B0DAA0A9320230B930123A6
S2140134908DF831300F4B1048009302AB04F01CF945
S2140134A004469DF832304FF4E130002B0CBF032167
S2140134B0002120F03FFD204615B030BD24FF03005B
S2140134C0000006500005000600080007240006500C
S2140134D0B2290020D81100202C120020831E012BB7
S2140134E010B512D8012922D8114B04221B690521D7
S2140134F00020C3F3401301F033FE0E4B1B6818681F
S214013500A8B1BDE81040436A18478B1E012B0CD8A2
S21401351001280CD8BDE810400022054B05211B6987
S2140135201046C3F3401301F01BBE0129E5D910BDB7
S21401353000C00350C00A002008B50449044804F03E
S214013540CFFBBDE80840FFF773BF00BFC40A0020E9
S21401355050120020014821F040BD00BF2C1200206F
S214013560014B1A6A186810472C120020184B37B501
S21401357083422AD1174B1B783BB3C8B210F06EF9C1
S214013580054610B3144C1549206821F0B8FB1449C0
S214013590206821F0B4FB20F075FC20F074FC114B80
S2140135A0114A009311498523206821F0A8FB104990
S2140135B02B46104A206821F0A2FB284600F034F979
S2140135C00D49206821F09BFBFEE703B030BD00BF2C
S2140135D058120020D229002090120020E1FB03009F
S2140135E040F8030092FF030040FF03004EF803007B
S2140135F05DF803005AF8030072F8030030B50025A1
S2140136000368584A23F47F4323F0070385B09342A7
S21401361004460295ADF80C507ED002F58022934206
S2140136200ED0A2F18272934240F09A804E4B1B78E4
S214013630002B00F0958005B0BDE8304021F000BEBB
S214013640B0F805301B2B40F08B80FF2304A91A46E7
S21401365011E9030020F00FFC012814BF41F2FC150C
S214013660414B05F0FC0208BF18701B21207910F0B1
S2140136705FF9054610B33D4C3D49206821F03FFBFC
S2140136803C49206821F03BFB20F0FCFB20F0FBFBD3
S214013690394B3A4A00933A495923206821F02FFBC7
S2140136A038492B46384A206821F029FB284600F085
S2140136B0BBF83649206821F022FBFEE7344900902A
S2140136C02379344A0968344800F008F90546002889
S2140136D046D0264C2649206821F011FB2549206852
S2140136E021F00DFB20F0CEFB20F0CDFB224B234A30
S2140136F0009323496223206821F001FB21492B46D0
S214013700214A206821F0FBFA284600F08DF81F496F
S214013710206821F0F4FAFEE7B0F80530B7EE047A37
S21401372007EE903AF8EE677AB0F8073067EE877AD8
S214013730013307EE103AB8EEC77A67EE877AB1EE34
S214013740047A67EE877AFAFE677AFCEEE77A17EE76
S214013750903AB3F57A7F38BF4FF47A730C4A136008
S21401376005B030BDA0000602D2290020901200202C
S214013770E1FB030040F80300A1FF030040FF030044
S2140137804EF803005DF803005AF8030072F80300D0
S214013790CC0A00206D350100581200200B4B024662
S2140137A01B7883B10A4B1B78834234BF002001206B
S2140137B0084B1B7833B1084B1B78134113F0010FEC
S2140137C008BF002070470120F2E700BFE60C00208A
S2140137D0E50C0020D3290020E40C0020012208B5C6
S2140137E0074B1A700022074B1A700422064B1A70F8
S2140137F01F22064B1A7003F06BFD054B186008BDBF
S214013800E60C0020D3290020E50C0020E40C002063
S21401381090120020024B0349186821F070BA00BFCD
S21401382090120020C1FF030070B50C4C0C490646EF
S214013830206821F064FA03F04BFD0546206803F08A
S2140138403BFD3046FFF7E6FF284603F035FD2068CE
S2140138500449BDE8704021F052BA00BF9012002022
S214013860C3FF0300C5FF030038B5054620F0DFFCA3
S21401387000230B4A14685CB1AC4206D1A96A6BB14D
S214013880996220F0DAFC012007E02346A46AF2E7F9
S214013890002DF3D020F0D1FC204638BD1160F0E7B2
S2140138A09412002010B5044698B104F083FE204619
S2140138B0FFF7DAFF10B194F82C300BB9002010BDD9
S2140138C020F0B5FC044A1368013B136020F0B5FCF8
S2140138D0F4E72220F3E700BF981200202DE9F04319
S2140138E085B00546914698460E469DF8307009B952
S2140138F0002F5CD12846FFF7D5FF0446002836D1B5
S21401390085F82C00686304F047FF864233D904F03B
S214013910E3FE2146844640F2E7304FF47A720023F4
S214013920E6FB0C011EF072FC4FF0FF3200231EF086
S2140139306DFC2B46E88611462846CDE900441D4A13
S21401394021F00BFC044690B9C5E9089885F82D705E
S2140139502E6320F06CFC184A136833B31A469B6A30
S214013960002BFBD195620023AB6220F066FC20465B
S21401397005B0BDE8F08347B12B4631462846CDE970
S21401398000440C4A04F0CCFEDCE7304603A904F000
S214013990A9FE04460028EAD12B462846CDE9007741
S2140139A0044A039921F0B5FBCCE71560DBE7212437
S2140139B0DDE700BFBD3901009412002091F82C30DC
S2140139C013B50C4683B98B8ECA8E93420ED243B979
S2140139D0CDE9003320460B46104A4FF0FF3121F067
S2140139E07CFBA38E0133A38602B010BD52B191F8C1
S2140139F02D307BB101230093D1E908232046096BC2
S214013A00FFF76CFF0123064A84F82C301368013354
S214013A101360E9E7084604F0CDFDF3E7BD39010080
S214013A20981200202DE9F041144E336823B34FF06D
S214013A300008134F20F0FBFB05463C6824B92846D6
S214013A40BDE8F04120F0F9BB94F82C3093B133680F
S214013A5084F82C80013B336094F82D3013B920464E
S214013A60FFF702FF284620F0E8FBD4E9083120469C
S214013A709847DFE7A46AE1E7BDE8F08198120020E5
S214013A8094120020034B1B68002B14BF0420012056
S214013A90704700BF98120020024B1868B0FA80F0F9
S214013AA0400970479812002007B5082020F06CFAEC
S214013AB002238DF80030054B6846019320F0FEF98D
S214013AC0082003B05DF804EB20F069BA006A18100C
S214013AD02DE9F047434D88B001AC0FCD0FC495E8F2
S214013AE00700012584E8070001213A2000F058FE6E
S214013AF0DFF8FC800121282000F052FE3A4B4046B8
S214013B0001A903938DF8125001F0CCFD2B46042237
S214013B100021022001F024FB2A4629460023022028
S214013B2001F01EFB02212B460846042201F018FB79
S214013B3004222B461146002001F012FB4FF002131F
S214013B402A4C0226C4F83036A3F58033C4F82C3646
S214013B501C231027C4F8346604F5005AC4F81C3632
S214013B604FF4487004F0ACFF04F580591420CAF8ED
S214013B70107004F0A5FF2320C9F8107004F0A0FF10
S214013B80B9214046CAF8107020F09AFB002330464F
S214013B901A461946C9F8107001F0E2FA00232946C0
S214013BA01A46304601F0DCFA2B46314630460022F2
S214013BB001F0D6FA00222B461046042101F0D0FA75
S214013BC0404601F0C5FC00212820C4F83016C4F890
S214013BD02C16C4F83416C4F81C1600F0E1FD08B023
S214013BE0BDE8F087C8FF030000127A0000C003504A
S214013BF000C005500348044A0449121A921020F0E6
S214013C00A9B900BF5C4E04005C4E0400EC2A0020FB
S214013C1008B500F02FF8FFF7EDFF124B12498B4263
S214013C2012D30020114B12498B4218D3FEF76CFBBE
S214013C30186850F82240586840F8224001329868C7
S214013C408242F5D30C33EAE70022F8E71C6844F811
S214013C50220001325C68A242F8D30833E4E700226E
S214013C60F8E700BF2C4A0400384A0400384A04002A
S214013C70384A04004FF400414FF0FF30124B134A0C
S214013C8010B59A60D3F8882042F47002C3F88820F1
S214013C900F4A916601F1884101F5005210664FF610
S214013CA0DF7050660220C3F8D000BFF34F8FBFF31A
S214013CB06F8F08244FF440330648C0F88041D36024
S214013CC004600B6110BD00BF00ED00E000200100A4
S214013CD00090005000E100E0014B1868704700BFFB
S214013CE0D40A0020084B1B6F03F00703022B04D0F5
S214013CF0032B05D0012B05D0FEE7044B186870474F
S214013D00034BFBE70348704700800050D40A0020AD
S214013D10DC0A0020002D310108B5FFF7E3FF054B53
S214013D201B6FC3F303330133B0FBF3F0024B186090
S214013D3008BD00BF00800050D00A00200048704730
S214013D4000B4C404014B1868704700BFDC0A0020A9
S214013D50054B1860054B1B6F03F00703032B01D1BE
S214013D60FFF7DABF704700BFDC0A00200080005072
S214013D7000487047002D3101014B1868704700BF9D
S214013D80D80A002000239B6A10B5B3F5903F11D2E4
S214013D9019680A4A91420DD1094C227812F0FD0F9A
S214013DA001D0002010BDDB6998470028FAD1012315
S214013DB02370F6E74FF48170F4E700BF07B0CD5EDD
S214013DC0D42900204FF00053074A1A60BFF34F8FE3
S214013DD00649074BCA6802F4E0621343CB60BFF39F
S214013DE04F8F00BFFDE700BF02020FF000ED00E0BD
S214013DF00400FA050346054A0549106803448B4248
S214013E008CBF4FF0FF301360704700BFE00A002000
S214013E100080002008B501213A2000F0C1FC0321F2
S214013E2001230422002001F09BF9002020F020FA53
S214013E300122214B4FF46070C3F8442420F012F99C
S214013E401E4B00F5D520D3F8F02000F2FC4042F0DE
S214013E500102C3F8F020D3F8FC2042F08072C3F8C8
S214013E60FC20174AA3F55D431A60164B0222B0FBED
S214013E70F3F0154B01381861C3F8F0204FF4807247
S214013E80C3F804234FF06043104A0020C3F8B02F54
S214013E900F4AC3F8802ED3F8002E42F48072C3F87E
S214013EA0002EFF2283F82020D3F8002E22F4807201
S214013EB0C3F8002E08BD00BF00D0035000ED00E09F
S214013EC0FF030040F8590D00000004E055CEACC5D4
S214013ED0090001004FF06043D3F8802E30B5D207B9
S214013EE015D501240B4D8440D5F8FC2042F0807294
S214013EF0C5F8FC20D3F8002E2243C3F8002E53F851
S214013F002020002AF0D003F82010002030BD112018
S214013F10FCE700BF00ED00E02DE9F04F9A46564B56
S214013F2085B01B7806460F461546DDF83C909DF891
S214013F3044B0DDF85080002B00F09780072A00F28D
S214013F4096800E9B002B00F09280B9F1000F00F0D6
S214013F508E80129BB3F5006F00F38980012803D190
S214013F60109B002B00F08380444B03EB05131B7B57
S214013F70002B7ED0424C1022002168462AF0BEFC5F
S214013F8004EB45141022A7BB394620462AF0B6FC9E
S214013F9043F210036380BBF1000F03D1E37843F0D3
S214013FA00303E370364A0E9B02EB451CCCE90193F2
S214013FB0129B6901581E9DF84C30C0F30A0003F0AD
S214013FC003039B0643EA001E53582E48012E00EABF
S214013FD003004EEA0003CDF800A0535017D0B8F105
S214013FE0000F2ED19CF8023068F304138CF80230CF
S214013FF027E0002120462AF081FC4FF444736380B9
S214014000BBF1000FCED1E37843F03003C9E71323A9
S2140140100CF1100ECCF80C309CE80F008EE80F0067
S2140140206FF00301DCF81C20109B61F39F02012F47
S214014030CCF81C20CCF8143003D1CCF81890CCF86E
S214014040043000270D4A290102EB051342F80180CE
S214014050159A28465A60694622469F605E7301F0AB
S2140140601DF9384605B0BDE8F08F0748FAE707485E
S214014070F8E70748F6E700BFD52900209C13002083
S2140140809C1200200F80FFF3028000F0018000F0F8
S214014090078000F038B5124B05461B78DBB1E0B15E
S2140140A020F0C5F80F4A00231146147B54B92B6043
S2140140B001251A0101EB03131D738C5020F0BDF886
S2140140C0204638BD0133082B02F11002EDD120F055
S2140140D0B4F80548F5E70548F3E70548F1E700BFFA
S2140140E0D52900209C130020048000F0028000F0F7
S2140140F0018000F038B520F09AF8002305460B4AF7
S214014100147B6CB90133082B02F11002F8D101F0CF
S21401411067F8074B28461C7020F08FF8204603E00E
S214014120284620F08AF8034838BD00BF9C130020BB
S214014130D5290020058000F00D4B10B51B780446EC
S21401414093B1072812D820F072F80A4B03EB041338
S2140141501A7B2AB100241C7320F06FF8204610BD8C
S21401416020F06BF80448FAE70448F8E70448F6E755
S214014170D52900209C130020068000F0028000F064
S214014180018000F0154B13B51868002301908DF8D7
S214014190043020F04CF8124B1C7824B120F04DF876
S2140141A0104802B010BD01221A7020F046F80E4BDE
S2140141B001A81C731C7783F82C4083F83C4083F8D5
S2140141C04C4083F85C4083F86C4083F87C400823BD
S2140141D08DF8073001F030F82046E2E7340004009D
S2140141E0D5290020038000F09C1300200A4A08B558
S2140141F012785AB107280BD8084A02EB00131B7B2A
S21401420043B1002101F00AF8002008BD0448FCE78C
S2140142100448FAE70448F8E7D52900209C13002053
S214014220028000F0018000F0078000F00A4A08B51D
S21401423012785AB107280BD8084A02EB00131B7BE9
S21401424043B1012100F0EAFF002008BD0448FCE765
S2140142500448FAE70448F8E7D52900209C13002013
S214014260028000F0018000F0078000F00A4A08B5DD
S214014270127852B107280AD8084A02EB00131B7BB2
S2140142803BB101F057F8002008BD0548FCE705489A
S214014290FAE70548F8E700BFD52900209C1300205F
S2140142A0028000F0018000F0078000F00D4B1B78C3
S2140142B093B1072812D889B10B4B03EB00131B7B74
S2140142C073B10A4B1A6D01238340134214BF0123B5
S2140142D0002300200B70704705487047054870475B
S2140142E005487047D52900209C1300200000045083
S2140142F0028000F0018000F0078000F00B4A10B544
S21401430012780C4662B107280CD859B1084A02EB5C
S21401431000131B7B43B101F01FF82070002010BD75
S2140143200448FCE70448FAE70448F8E7D5290020E2
S2140143309C130020028000F0018000F0078000F04E
S214014340184B2DE9F0411F6D5B6D1F4000D5FEE750
S21401435001260025144CDFF85880374218D0236810
S214014360C8F85060A3B1A168284601316268A1600F
S2140143709847637B012B0BD150B90C4B03EB4513CC
S2140143801A7B60F341021A731A7F60F341021A77AF
S2140143900135082D4FEA460604F11004DDD1BDE8CB
S2140143A0F08100BF000004509C1300209C120020E6
S2140143B000200450024B1968024B186816F050BCD6
S2140143C0E40A0020040B002070B59400224605463E
S2140143D00E462BF015FA431C0AD058B92246314630
S2140143E028462AF061FA0028034808BF002070BD5D
S2140143F00248FCE70248FAE710E000F021E000F08E
S21401440024E000F010B504462BF0FEF9431C10D052
S21401441088B901F063F8234620F00300204498424F
S21401442001D1002010BD53F8042B0132F7D0034808
S214014430F8E70348F6E70348F4E700BF0EE000F0AC
S21401444021E000F024E000F008B51FF0E9FE014B82
S214014450186008BD0C1B0020014B18681FF0E4BE55
S2140144600C1B0020044BD3F88420D206FBD4D3F8CF
S2140144708400C0F3811070470040005038B5104BDF
S2140144800546D3F820310C4603F00303022B0BD06C
S214014490032B0DD0012B0FD1FFF71EFC052305B111
S2140144A0286004B1236038BDFFF74CFC0323F6E710
S2140144B0FFF75EFC0223F2E701230020EFE700BFCF
S2140144C00080005073B50D4600210E4B0191D3F8C4
S2140144D08041064604F00304012C09D0022C0CD0BE
S2140144E00C460EB1019B336005B12C6002B070BD65
S2140144F001A8FFF7C3FF0F24F3E7FFF739FC01908C
S214014500EFE700BF0080005038B5184B0546D3F8DA
S21401451024010C4600F00700062823D8DFE800F047
S214014520040A121A1E0E1600012305B1286004B1F2
S214014530236038BDFFF7D0FB0523F6E7FFF7CCFB7A
S2140145400623F2E7FFF7FEFB0323EEE7FFF7FAFB8E
S2140145500423EAE7FFF70CFC0223E6E71FF005FD5C
S2140145600723E2E700231846DFE700BF008000507C
S21401457038B5104B0546D3F840310C4603F003031B
S214014580022B0BD0032B0DD0012B0FD11FF0EFFC0C
S214014590092305B1286004B1236038BDFFF7ECFBA1
S2140145A00823F6E71FF0E6FC0B23F2E701230020C1
S2140145B0EFE700BF0080005038B5144B0546D3F82E
S2140145C000020C4600F0070004281BD8DFE800F0C4
S2140145D003090D111500012305B1286004B12360FC
S2140145E038BD1FF0C4FC0923F6E7FFF7C5FB082317
S2140145F0F2E71FF0BFFC0B23EEE7FFF78DFB0E2360
S214014600800AE9E700231846E6E700BF008000506D
S21401461038B5104B0546D3F840320C4603F0030379
S214014620022B0BD0032B0DD0012B0FD11FF09FFCBB
S214014630092305B1286004B1236038BDFFF79CFB50
S2140146400823F6E71FF096FC0B23F2E70023184633
S214014650EFE700BF0080005038B5104B0546D3F891
S21401466060310C4603F00303022B0BD0032B0DD055
S214014670012B0FD11FF07BFC092305B1286004B183
S214014680236038BDFFF778FB0823F6E71FF072FCBE
S2140146900B23F2E701230020EFE700BF0080005064
S2140146A010B40D4C0B46D4F8204204F00304012C40
S2140146B00AD0022C0CD008B1002101600BB10022F7
S2140146C01A605DF8044B70475DF8044BFFF7D6BEE1
S2140146D05DF8044BFFF74CBF0080005038B50C4620
S2140146E005461FF09DFD054B9A6A54402C405440E8
S2140146F09C62BDE838401FF097BD00BF00C0005067
S214014700B0F5207F1FD009D8B0F5007F15D003D8AB
S21401471068B1B0F5C07F0AD000200CE0B0F5607F2C
S214014720FAD10B4BD3F88000C0F3011003E0084B1D
S214014730186FC0F3033001307047054BD3F8900073
S214014740C0F30460F7E7024B186FC0F38020F2E76E
S214014750008000504FF400320E4B014610B5002089
S2140147609A66FFF7CDFF484341F671320A490B4B73
S214014770884294BF00200120DC69DA639A6822F43B
S214014780401242EA00529A60E20344BF0022DA6312
S21401479010BD00BF00900050005A62020000035096
S2140147A0420910B50FD0012A0FD00A4B0A4C022A33
S2140147B018BF234600F01F0049B103F580530122BC
S2140147C082401A6010BD1346F4E7044BF2E703F586
S2140147D00053F4E768800050608200506480005007
S2140147E008B580201FF03EFC034B98429EBF4FF455
S2140147F08032024B1A6708BD005A620200A00050C0
S2140148001FB50023B0F5807F019377D028D83828CC
S21401481000F094800BD82438092810D809280ED81F
S214014820DFE800F0676767670D0D620D377D522878
S2140148305FD008D83D283BD03E2800F08480019800
S21401484005B05DF804FB8028F9D1414B1B6F03F0DE
S2140148500703013B032BF2D8DFE803F044413F6C2A
S214014860B0F5D06F5BD019D8B0F5A06F66D00AD876
S214014870B0F5806F3DD0B0F5906FE0D1002001A972
S214014880FFF742FEDBE7B0F5B06F2DD0B0F5C06F95
S214014890D5D1002001A9FFF76BFED0E7B0F5006F78
S2140148A0ECD00AD8B0F5E06F4DD0B0F5F06FC6D1B8
S2140148B0002001A9FFF7D0FEC1E7B0F5086FBED111
S2140148C0234BD3F8003103F00303022B2CD0032B28
S2140148D02ED0012B30D1FFF735FA032300E0052354
S2140148E00193ACE70223FBE7002001A9FFF7EAFDED
S2140148F0A5E7002001A9FFF7C1FDA0E702934FF04D
S214014900E0231B695B0705D5FFF706FA0C23039323
S214014910039BE5E703A902A8FFF72AFEF8E70020B4
S21401492001A9FFF749FE8AE7FFF726FA0823D7E72A
S2140149301FF01BFB0723D3E70123D1E7002001A9C2
S214014940FFF7AEFE7BE7002001A9FFF761FE76E7E1
S214014950008000504FF40022034B5A66012203F5F3
S21401496080439A62704700BF0090005008B5FFF779
S21401497047FF082811D00938012802D94FF6FF70E1
S21401498008BD4FF40012064B5A6603F5D8335B6A2E
S214014990DB07F3D54FF4FA70F2E7024B1888EFE71E
S2140149A000900050D00C0020F8B504468020FFF798
S2140149B027FF032800F087804FF40022424B022194
S2140149C05A6645F60E03414AC2F88030404B99625A
S2140149D0012103F580539962936DD903FCD4D4E980
S2140149E000131B0543EA0163E17B94F820500B4357
S2140149F0217BE77E43EA0143617B6D0143EA013394
S214014A00A17B43EA811313619169D4E904031B0670
S214014A1043EA806301F000410B43A17E94F8230032
S214014A200B43217E43EA0143617E43EA01239361FE
S214014A30136AE66923F00D0394F8221043EA87030C
S214014A40002E2DD11362966A94F8213045EA03139D
S214014A5026F033052B4343F0010393621D4D1B4B98
S214014A609A6D35EA0202FBD10222194DAA621A6535
S214014A709A6D5200FCD41A69A56822F4700242EAC3
S214014A8005521A614FF00042114B9A6119B9022280
S214014A9003F580539A6278B901220F4B9A620BE0B4
S214014AA0334343F008031362936A23F0330303434B
S214014AB02B4343EA4103936294F824301BB1034B22
S214014AC0064AC3F88020F8BD0090005000C0005090
S214014AD000D000500300014000E00050F1A7FFFFA6
S214014AE01E4BFF2870B59E6A35D89A6D12F4803F2A
S214014AF018BF01211A4A18BF9162022191629B6D6B
S214014B00DC0303D5154A936D9907FCD50222144B95
S214014B10124D1A65AC6D14F08044FBD1114AAB6995
S214014B2092F9002023F47F03024423F47F4382F3A7
S214014B30080243EA002343EA0243AB6131460220FE
S214014B40FFF7CCFDAB6DDB0303D531460120FFF744
S214014B50C5FD204670BD2124FBE700BF00C0005004
S214014B6000D00050D6290020014B93F90000704771
S214014B70D629002001221548154B816A9A62826D5A
S214014B8002F00302032AFAD102229A621A650F4A38
S214014B90936D5B00FCD40F48936D30EA0303FBD1A1
S214014BA001220B4B1A65A3F580539A6D9007FCD42E
S214014BB09A6D9207FCD50222054B1A65034A936D3E
S214014BC09B07FCD50320FFF789BD00BF00C000503E
S214014BD000D0005003000100F0B5D0E901434FF4C6
S214014BE080061A4A4178057856664FF4D156022750
S214014BF002F5B8325662164E4F2977604FF001071C
S214014C0028BF4F2106F5805677601669F603FCD457
S214014C1041EA052151611B01417B43EA04230B4311
S214014C20017B43EA41039360C37B817B1B0143EA1B
S214014C304113417C0B43017C43EA41035360837C6F
S214014C4013B16FF4D1535362F0BD00BF0090005012
S214014C5000100250014B1880704700BFD00C002096
S214014C60014B1880704700BFCE0C00204FF4001295
S214014C7008B5184B5A660223174A5360936813F413
S214014C808033FBD1012822D1FFF75CF8134B984201
S214014C9015D003F5122303F5F863984213D0104B91
S214014CA000EB8002400AB3FBF0F3520A0A49CA62DB
S214014CB00B6301234B620022074B5A6008BD45F681
S214014CC07A13084AF2E745F61A03074AEEE75362F3
S214014CD0F1E700BF009000500040025000F049028A
S214014CE064666666D8B80500BBCF0500B0F5207FC0
S214014CF010B50C4642D008D8B0F5007F33D003D8A3
S214014D0088B1B0F5C07F0ED010BDB0F5607FFBD185
S214014D101F4A4C1ED2F8803023F0300343EA0413B6
S214014D20C2F88030F0E71FF095F91FF05FFA4FF4F4
S214014D308031184B164A1967136F013C23F47043F0
S214014D4043EA04331367FEF7E7FF0446FFF78AFBDF
S214014D50C0F1020120461FF043FA00F02DF8BDE82D
S214014D601040FFF73DBD0A4A4C1ED2F8903023F0A2
S214014D70F85343EA0463C2F89030C5E7044A4C1E70
S214014D80136F23F4806343EA84231367BCE700BFF1
S214014D90008000500090005008B50121022000F06C
S214014DA0E7F81FF057F91FF021FA4FF48032014B54
S214014DB01A6708BD0090005008B54FF4C0701FF088
S214014DC051F9BDE808400449884294BF01210221F7
S214014DD04FF42070FFF78ABF80F0FA02034B586841
S214014DE0C0F30800003818BF0120704700ED00E04E
S214014DF010B5224B70B94FF40031214A1860516644
S214014E0002F598325268012A03D11E4AD2F80021CF
S214014E101A6010BD1B68002BFBD01B4A5268012A82
S214014E20F7D0184A8020C2F80031FFF7E9FC0528C0
S214014E301FD14FF4C070FFF763FC0128044604D16C
S214014E4002214FF4C070FFF751FF07220F4B1A6182
S214014E500122A3F580535A600B4A1369DB07FCD580
S214014E60012CD6D12146BDE810404FF4C070FFF7A3
S214014E703DBF0122064B5A60CBE700BF101B002046
S214014E80009000500080005000C0015000E001502A
S214014E9000D00150044A4178536F23F4407343EA2B
S214014EA001235367704700BF0040005010B5044609
S214014EB010B10020FFF79CFF104A136943F004036A
S214014EC0136103F049F91FF0BBF90D4B0D4AC3F806
S214014ED020241FF0A5F92AF08FFC1FF0A5F91FF07A
S214014EE0B0F903F061F91CB9BDE81040FEF714BF34
S214014EF00120BDE81040FFF77BBF00BF00ED00E0DA
S214014F0000E003500000FF0F10B5044610B100206A
S214014F10FFF76EFF0E4A136943F0040313610D4B4E
S214014F200D4AC3F8202403F017F91FF079F92AF087
S214014F3063FC1FF079F903F037F91CB9BDE810409E
S214014F40FEF7EABE0120BDE81040FFF751BF00BFE3
S214014F5000ED00E000E003500000FF0F034A017976
S214014F60D36E23F030030B43D366704700400050E6
S214014F70F8B504461C4BD3F88420D106FBD4D3F8ED
S214014F808430C3F381139C422CD0FEF7ABFE012C78
S214014F90064602D121461FF023F91FF041F94FF0D2
S214014FA00072124B07465A6620461FF051F94FF41D
S214014FB080630D4D621E93402B676B6E9A0103D47E
S214014FC0D5F884309B060AD538461FF02DF9022CF9
S214014FD008D13046BDE8F84000211FF001B9D5F8E8
S214014FE08430EAE7F8BD00BF004000500060005082
S214014FF010B50C4608B9FEF775FE074B21461B781F
S2140150003BB1064B984204D80120BDE81040FFF79B
S214015010AFBF0220F9E700BFD7290020005A62027D
S2140150200278034B012100201A70FFF7E1BF00BF91
S214015030D72900204FF0004238B5264B26495A663C
S21401504001224A604AF6CD3103F50B235D6C1964E3
S214015050154030BB9968C9070BD4002401221F4BA9
S2140150605A6015B11E4B1F4A1A6428F098FE204656
S21401507038BD1A498A601C4AD96ACC0705D49042C1
S21401508001D10724EAE70130F6E79042E5D1F8E7D7
S2140150900132DC6A14F0080406D08A42F8D10724EB
S2140150A0DFE700221049F4E78A42F8D020220B4BB2
S2140150B00B495A620122A3F580539A6023460A4A95
S2140150C0486A800603D49342E9D00133F8E7934255
S2140150D0C7D1E4E700900050005009500060095025
S2140150E0004009503254FFFF40420F004FF000428B
S2140150F038B5174B174C5A66012203F50C235A6034
S2140151004AF6CD33656C2364437893401343124AC1
S214015110D363C3788178A2689B0043EA011322F027
S21401512074021343A3600279837943EA022323615D
S2140151304279C37943EA022363610078FFF77AFF75
S214015140EB0744BF054B236428F029FE012038BD38
S2140151500090005000400950004000503254FFFFBC
S214015160F8B504460D461F4616464AB101238B4044
S2140151703021184A01FB0022F7B141F210015350C9
S21401518004EB4403072D4FF00F014FEA031316D823
S214015190A80006FA00F281400F4818441FF059F89B
S2140151A04EB9012330210B4AAB4001FB042277B1F3
S2140151B041F210015350F8BD42F21001DFE7A5F1AC
S2140151C00800800006FA00F281400448E5E742F252
S2140151D01001EFE700C0035004C003500CC0035099
S2140151E04FF400120B4B10B5C3F88020BFF34F8F5E
S2140151F0BFF36F8F0024FF22074B21465C652020FA
S2140152009A625C60FFF7CCFA2146BDE81040212087
S214015210FFF7C6BA00E100E000000450044A054B5F
S214015220002908BF1346012282401A60704700BF5A
S214015230401004504020045010B50121044620209F
S214015240FFF7AEFA01212120FFF7AAFA0122114B3E
S2140152505A60227812069A606178A27842EA014280
S2140152609A61FF229A6200229A631A644FF0004202
S2140152705A654FF0FF324FF4001103F500531A65DB
S214015280054AC2F88011E3781B01DBB282F81533B8
S214015290116010BD0000045000E100E0F8B50125E2
S2140152A0C3B2DFF888C0D1F800E09D408F7ACB7A90
S2140152B00C46097BCCF850500CF5005C4CF820E00D
S2140152C04FF0300E184E1B050EFB006094F80DC013
S2140152D043EA074343EA415322F00302C0F860C0A1
S2140152E0C36502671EF0A3FF736D2B437365237AB4
S2140152F013B1336C2B433364637A13B1B36B2B4313
S214015300B3632279A37943EA0243084A9361617938
S214015310E37943EA014306498B61034B55639D6478
S214015320BDE8F8401EF089BF00000450002004507C
S2140153300010045010B50124C0B284401EF077FF5F
S214015340044B5A6D22EA04025A659C62BDE810407D
S2140153501EF073BF0000045010B50124C0B2844093
S2140153601EF065FF074BDA6A224208D15B6B9C434D
S2140153700CBF012400241EF060FF204610BD00244F
S214015380F9E700BF000004504FF40032054B9A665F
S21401539041F6713203F51C33DA63012203F500533B
S2140153A0DA6070470090005041F671320121064BD9
S2140153B0DA6303F50052D1600022DA634FF400325B
S2140153C0A3F518339A66704700000350CB784A78E5
S2140153D010B55B010C7843EA82030A79234343EA5A
S2140153E002130C22424302F1B0421363012C02BFA6
S2140153F08A78024B43F8202010BD00BFE880035096
S21401540008B54FF0B0435A686AB958B15B680BB13A
S2140154101EF02FFF01210D4B59601EF02AFF4FF0A1
S214015420B043D96008BD5B680BB11EF022FF0028AF
S214015430F0D11EF01EFF4FF0B0430222DA601EF0DC
S21401544018FF0122024B5A60ECE700BF001000581B
S214015450002000584FF0B0414B6810B50BB11EF05C
S21401546008FF01220B4BC4785A608378934043EAC5
S214015470840344782343047943EA0413447943EAD2
S214015480C4038B60044B5A600378C3F10203CB60FC
S21401549010BD00BF00200058001000584FF48032A5
S2140154A0064B5A6603F5E6235B69C3F385128270E1
S2140154B003F03F021B0B42700370704700900050D0
S2140154C0014B986CD96C70470080E00F024B18684E
S2140154D0C0F30740704700BF0080E00F0120034B78
S2140154E09B680A3303F01F03984070470080E00F63
S2140154F070B5054616461C4621B94FF420701EF0BD
S214015500B1FD0146402C1BD003D8DCB1202C1BD0AA
S21401551070BD602CFCD1042303FB06F2530803EB99
S2140155204113B3FBF2F3094A203B02EAC303AA681C
S21401553022F06002AA60AA681443AC60EB61E7E758
S2140155400623E9E71023E7E70823E5E7F8FF7F00EE
S214015550012200F580535A6040F6AA6341F2050223
S214015560436100230B498360C365C26000F50052A6
S2140155700361C361C364916407498365884203D1AB
S21401558003650023436502E004498842F8D00123FD
S21401559053607047FFFF010000C005500000065031
S2140155A070B50D46FFF7D4FF012300F580567360F2
S2140155B0AB7C04461BB1836843F080438360EB7C7D
S2140155C05BB1354A2B7D944245D1A2F51032C2F823
S2140155D08C31E36D43F08003E3652A8A6B7B2046BA
S2140155E01343EA891343E3602B7BD5E90112FFF7E6
S2140155F07FFF6B7D1BB1A36843F48033A360AB7D53
S2140156001BB1A36843F40043A360EB7D2A7E1B070E
S214015610120502F4E00203F0E0431343A365697E3A
S2140156201D4A8B1E012B1D4B1FD894421BD002F521
S214015630804294420CBF01224FF0FF3203EB42132B
S214015640022041F21C620329985020D10423F365FD
S2140156502B78636170BD124A944204BFA2F52032D2
S214015660C2F89C31B5E70022E8E794420DD00C4A17
S21401567094420CBF01224FF0FF3203EB421302208B
S21401568042F21C6201299850DFE70022F5E7042266
S21401569004F50053DA65DBE700C0055000C003508F
S2140156A00000065038B50D46FFF752FF012200F5FF
S2140156B080535A602B8A826843F001031343AA7B06
S2140156C0044643EA8223836083682A7D43EA427361
S2140156D08360AB7C5BB11D4AEB7C90422DD1A2F579
S2140156E01032C2F88C31E36D43F08003E3652B7B07
S2140156F02046D5E9011243F48053E3601EF0C1FD54
S2140157006B7B0BB1102363616B7D1BB1A36843F404
S2140157108033A360AB7D1BB1A36843F40043A36051
S214015720EB7D2A7E1B07120503F0E04302F4E0023C
S2140157301343A3652B78636138BD054A904204BFC5
S214015740A2F52032C2F89C31CDE700BF00C005505B
S2140157500000065038B50446054D28F045FB0FCC31
S2140157600FC594E8030085E80300002038BD00BF9C
S214015770141B002047F6FF739A42F0B56FD002293A
S2140157806FD8394B5B5C012B6BD8384DDF0005EBCE
S214015790C30415F83330A178012B13D10025E07826
S2140157A0401AA84202D80844C0B2F0BD431B66683E
S2140157B0A0EB530336F913609642D4BF1D4603F19E
S2140157C0FF30EEE760680028EFD0B0F90040944261
S2140157D004DBB0F902409442B8BF144683883D44C6
S2140157E0FF2B19BFC8224FF0280CB0F90620B0F9DC
S2140157F008C0A2EB04030CBF0126002693FBFCF3B2
S21401580033446E781BB29E4201DD002B01DA731E13
S2140158101BB24FF47A7C01339BB2071D5D1E2DB27D
S2140158204FEAC50E00EBC505EA88AD689E4214FB3B
S214015830025222EAE27202F15C02B2FBFCF204DDE1
S21401584037F8335001339542E8D200EB0E039888BF
S214015850904228BF1046884238BF0846A4E7FF207A
S214015860A3E70020A1E700BF59000400141B002095
S2140158700229F0B555D82C4B585C012851D82B4C31
S21401588004EBC00114F830004B6801280FD1C8782A
S2140158908C78904294BFC4EB0001C4EB0201001B5C
S2140158A0CAB28242C8BF002233F91200F0BD002BF3
S2140158B037D08878904202D3B3F90200F6E7CC7865
S2140158C0B3F900009442F1D94C789988013CA1F1D2
S2140158D0FF06714203F10405E4B2714103F10C07BE
S2140158E0CEB2B44216D805EBC1014FF47A756A43BD
S2140158F0B1F902404968521A04EBD47102EB610215
S21401590092FBF4F29042D1DBB3F902009042CDDC77
S21401591010B2CBE737F831C04E1C9445E3D331467D
S214015920DEE70348C2E700BF59000400141B00204D
S2140159300080FFFF08B50448FFF70CFFBDE80840EC
S214015940012028F055BA00BF9C07040000487047A4
S214015950D20C00207FB50222084B0949CDE901236C
S2140159604FF00073CDE90313052301A94FF0FF3073
S214015970059328F072FA07B05DF804FB006A180078
S214015980000204001B0603F0706300F00F0009021A
S214015990034301F47061120402F470220B431343B3
S2140159A0014A1360704700BF0020025C60B50546DF
S2140159B019B10139B1F5806F0FD2094EF06810F4B4
S2140159C08030FBD143EA012312072B4302F08052B9
S2140159D0134343F00043736060BD0120FCE700BF42
S2140159E00020025C0122054B9A60DA68D203FCD4DF
S2140159F0D86820F00F000004000C70470020025CFD
S214015A00014B1868704700BF0040025C014B5868A4
S214015A10704700BF0010025C014B186B704700BF57
S214015A200010025C014B1868704700BF0010025C52
S214015A30014B9860704700BF0010025C014B186470
S214015A40704700BF0010025C014B5864704700BFEE
S214015A500010025C014B5863704700BF0010025CE7
S214015A600022014B1A6070470010025C024A13685C
S214015A7043F00103136070470010025C024A13688A
S214015A8023F00103136070470010025C43F2040226
S214015A90014B1A60704700BF0010025C024A13688F
S214015AA043F03003136070470010025C044B1A6821
S214015AB042F480721A601A6822F480721A60704783
S214015AC00010025C024A136843F480631360704757
S214015AD00010025C034A136823F4702343EA004370
S214015AE0136070470010025C044B1A6902605A6921
S214015AF042609A698260DB69C36070470010025C8D
S214015B000268044B1A6142685A6182689A61C268E7
S214015B10DA6170470010025C024B1A6BD207FCD4A4
S214015B20186270470010025C0322024B186019616C
S214015B305A6370470000025C82B01FB507930A9B48
S214015B4004AC8B4228BF0B4604E907001048D1007D
S214015B50079948BF03330160099948BF23F003033F
S214015B6023F0704301F0E041194341F00051816098
S214015B70002102F0E042019C1A4342F00052C1604B
S214015B8004618261416304B0BDE8104002B0704711
S214015B900000025C3F22034B1A631022DA610322E3
S214015BA09A6370470000025C024AD36B9B07FCD4E1
S214015BB0704700BF0000025C044B9B6A13F0240F81
S214015BC014BF012000208000704700BF0000025C67
S214015BD008B5FFF7F1FF064BDB6B23F47F4323F099
S214015BE0EF0303431EBF0122024BC3F8FC2F08BD7F
S214015BF00000025C00F0FF3F4368182B0AD0202B00
S214015C001DD0102B2BD1174BD3F80434DB010AD44B
S214015C1001207047134BD3F804349A01F8D50B686A
S214015C2043F008030B6003680F4A934210D10B68D8
S214015C3043F040030B600023436000207047094B8C
S214015C40D3F804345B01E3D50B6843F00403E9E7BA
S214015C50064A9342F1D10B6843F08003EAE7072036
S214015C60704700BF0000025CD9290020D829002017
S214015C700B4607B50749D1F80414C90708D5002112
S214015C8000920246084600F05BF803B05DF804FB9C
S214015C900120FAE70000025C1346064AD2F8042403
S214015CA0D20504D50A46014600201EF01BBD012080
S214015CB0704700BF0000025C13B5084CD4F80444DA
S214015CC0E40508D5009313460A460146002000F075
S214015CD061F802B010BD0120FBE700BF0000025CC6
S214015CE013B5084CD4F80444E40508D500931346CC
S214015CF00A460146002000F071F802B010BD0120EE
S214015D00FBE700BF0000025C70B504460D46164670
S214015D108CB00A4A09AB07CA83E807001A4621462F
S214015D20CDE90563CDE90333CDE9013300954FF4A1
S214015D3080301EF003FC0CB070BD00BF5C00040098
S214015D40F0B51C465B6815468DB01A07129E1AD12F
S214015D50CBB17268934216D10C4B0D4A53F82170A1
S214015D6009AB07CA83E807001A462946CDE9053379
S214015D70CDE90333CDE90163009447F480701EF04A
S214015D80DDFB0DB0F0BD0720FBE700BF6800040097
S214015D905C000400F0B516465A688DB0102A0D4610
S214015DA0129F15D17A68102A12D10A4A09AC07CA7D
S214015DB084E8070022462946CDE90547CDE9034494
S214015DC0CDE90144044800961EF0B8FB0DB0F0BDC5
S214015DD00720FBE75C00040030000100F0B5164622
S214015DE05A688DB0102A0D46129F15D17A68102A6E
S214015DF012D10A4A09AC07CA84E807002246294696
S214015E00CDE90574CDE90344CDE901440448009683
S214015E101EF094FB0DB0F0BD0720FBE75C0004000C
S214015E201000010082B070B586B0149D03AE202D1F
S214015E3086E807000B9359D805EB85038B4203D000
S214015E4006236B438B4253D10C9BAB4250D10F9B25
S214015E50B3EB450F4CD1129A934249D10122294600
S214015E602220159BFFF7A2FD044630BB03460622FF
S214015E700E210C20FFF786FD0123CDE900332B46CA
S214015E8096E807001EF0EDFA0E230BAA009307CA48
S214015E902B461EF031FA0C23164C00930EAA2B4605
S214015EA007CA1EF059FA636823F07F0343F02603FE
S214015EB06360FFF797FD30B10624204606B0BDE8C3
S214015EC0704002B07047636823F07F0343F02203FB
S214015ED06360FFF787FD04460028EDD1062311AA6B
S214015EE0009307CA2B461EF06AFAE6E70124E4E7A8
S214015EF00724E2E70020025C70B598B0002843D082
S214015F002C4C08AD0FCC0FC50FCC0FC50FCC0FC551
S214015F1094E80F0085E80F006D4604AE04F1100307
S214015F2020340FCB85E80F0094E80F0086E80F00B9
S214015F30FFF7BCFD0420FFF7CDFDFFF7A7FD3046B8
S214015F40FFF7DEFD002408AE56F8040B0134FFF718
S214015F50E3FD102CF8D1FFF759FD0328FBD90024E7
S214015F60FFF77EFD2646FFF74BFD55F8043B01364D
S214015F705840042E44EA0004F5D12CB10122062033
S214015F800D4B1A7018B070BDFFF790FD0820FFF793
S214015F904FFD0020FFF752FD0720FFF755FD4FF498
S214015FA00070FFF757FD0820FFF794FDFFF75EFD31
S214015FB00020E7E744010400DB29002008B5FFF7CD
S214015FC075FD0122014B1A7008BD00BFDA290020B9
S214015FD01FB51EF006FD044630B1012206240D4B06
S214015FE01A70204604B010BDFFF70AFD0090FFF7B7
S214015FF007FD0190FFF704FD0290FFF701FD0390F6
S2140160006846FFF77DFDFFF7D9FFFFF747FDFFF76E
S21401601059FDE6E7DB29002006289ABF014B185CEC
S21401602000207047A401040030B5154B87B00293D9
S214016030144B0390049346F611030D46059300F0A6
S21401604077F91428044616D168461EF074FD4FF001
S214016050A843032202A95A6319601D619A63DA6B89
S2140160609207FCD1142C02D168461EF072FD00F096
S21401607093F9044601E00028E9D0204607B030BD78
S2140160802C1B0020040000202DE9F04FB1B005467E
S2140160908C469E46E8466F4EDDF8EC90409C06F135
S2140160A0100A474630687168083603C75645B84631
S2140160B0F7D13E9B03EB0208C8F1000A0AF00F0A6B
S2140160C0B9F1000F00F09D80C9F1000707F00F0736
S2140160D00121DDF8FCB044F00050C4F11006CDF803
S2140160E010B005910690300200F4F85040F02100FF
S2140160F00790B9F1000F40F08680CDF820D047F028
S2140161000050002D00F08480099121210A9041EA77
S21401611007210B9142F00050CDF830C03D9B08A9F5
S2140161204FEA0A2C0D910E904CF041000F901093FF
S214016130002A75D13E9B119143F0005312933C9B6C
S2140161401390149310AB1593434B444A169340F6A1
S21401615011031793424B0021002D08BF13461893D5
S21401616014AB19933F4B10221A9311231B931CABAC
S214016170184628F0C3FB01221D92002246F08046F5
S21401618003461E96239205B9EB46102CCDF880B037
S21401619024AE4BD10123224600213046219322947E
S2140161A028F0ACFB20AB002125938F4218BF334665
S2140161B047F0804226923A9A2CA828922993B2FA5E
S2140161C082F35B0949EA837310222B912A9328F004
S2140161D095FBB9F1000F00D028AED04448F08043BB
S2140161E02CA918A82D962E93FFF71EFF30B92DB9AE
S2140161F00346A34225D1002818BF2C2031B0BDE8A4
S214016200F08F102764E7CDF820E049F0005078E7DA
S214016210002C3FF479AF04A9099101210A9076E791
S2140162203E9B0CAA11924120129388E7102200216E
S21401623030462193229428F061FB002CB2D1012331
S214016240B1E703F1C0026A4412F8C02C01331043CF
S214016250CFE700BFAB01040010000020C00104001E
S214016260C401040004000020F0B5C0299FB0DDE998
S214016270244557D0B1F5807F04D0802948D0292005
S2140162801FB0F0BD01265CB140F2344702941024E1
S21401629003960494212401970594069502AC0AE01E
S2140162A040F2144702941024039604942124059482
S2140162B00124019706950794012510240894099551
S2140162C00A9221220B950C940D92174A0AAD0E9252
S2140162D0164A0F95109242F61102119212931395D7
S2140162E01494159201AA1692D3B112AB17930423F4
S2140162F018931123199316AB1A901B9340F61103AA
S214016300C9081C911AA806A91D93FFF78DFEB7E7C9
S214016310012614B94FF48267C4E74FF48667B5E7E0
S2140163200EABE3E70F20ABE7BC0104001000001042
S21401633038B5164B5A6E42F004025A66D3F88022DC
S21401634042F00102C3F88022114B5B68C3F30803D5
S21401635043B14FF0A842D36B13F0430FFBD1142483
S214016360204638BD4FF0A843DC6B14F04304FBD144
S214016370084D2B681BB90421284602F0D7FD2B686F
S214016380013343F000432B60EAE700BF0080005072
S21401639000ED00E02C1B0020014B00205B687047DD
S2140163A000ED00E04FF40052034B00209A660322F2
S2140163B0C3F86022704700BF009000504FF40052AF
S2140163C0034B00209A660322C3F86022704700BF81
S2140163D000A00050012300F01F02A0F50620094985
S2140163E0A0F550604009934051F820201A4341F827
S2140163F02020054951F8202022EA030241F82020F6
S214016400704700BF441B0020301B00200121A0F56F
S21401641006230E4AA3F550635B0900F01F00814076
S21401642052F82300014342F823100949D1E900300C
S214016430034488680344C868096903445B1802BFBB
S214016440C2E90033C2E9023313617047301B0020F2
S214016450441B00202DE9F04FA9B003921D460446C7
S2140164600822339ECDE90401414021FA02F34B4054
S214016470980702F1080218BF9B00202A1C44F4D199
S2140164808123B4FBF3F303EBC313E41A734B04F554
S21401649006241B7804F55064002B3ED1FDF78AFFD5
S2140164A0074620B16FF0910029B0BDE8F08F014694
S2140164B0402208A828F022FA4022394618A828F0D7
S2140164C01DFADFF8B481DFF8B491C3460BF10F0A69
S2140164D0CDF800A0102208A95B46D9F8000027F0E5
S2140164E011FA0022014608F1100808AF914246D180
S2140164F0CDF800A05B461022D9F8000018A927F0B5
S2140165000AFA4FF0000A834618AFD34541D1544BDF
S2140165109845DAD10122514B1A704FF0810A4FF09B
S2140165200008DFF85CB1A4F50627A7F550635B0900
S2140165305BF8232004F01F01CA40D2073DD4494A24
S21401654052F82330CB40DB072AD5B8F1000F08BF3D
S214016550A0468123A7F6FF47B7FBF3F303EBC3136C
S214016560FF1A07F50624BAF1010A04F55064DAD1D8
S214016570039BBBB1B8F1000F14D0444619E057F89D
S214016580040BCDE90612FFF725FF079A069901329B
S214016590ACE757F8040BFFF739FF0AF1010AB4E735
S2140165A0039B13B96FF08B007EE7B8F1000F18BF9D
S2140165B04446349B00201C6076E7329B13B10023CF
S2140165C0329A13600EB1002333601023DFF8AC90CB
S2140165D000932A4600232146D9F8000014F0B2FCA5
S2140165E060BB32992A68204BC9B99A4206D0214627
S2140165F0D9F8000014F03EFD0028D3D1D5E90223D6
S214016600DDE90410834208BF8A42A2D1039B002B16
S214016610CFD06B68012BCCD16FF0840044E71020FB
S21401662032999A420860E2D1002EE7D033462146DD
S214016630D9F8000018AA14F0D9FC48B10B4B9842BF
S214016640D5D00B4B9842D2D00A4B9842D6D029E7E8
S214016650329A336812689B1A3360CFE7DC29002030
S21401666000710800301B0020105D175EFFDF00F090
S21401667011E000F0FEDF00F0006D0800040B0020C2
S214016680441B00202DE9F04F87B082468946984684
S2140166901646DDF840B02AB1002B4FD040F26C739D
S2140166A09A424ED8BBF1010F4ED8002406F11007CE
S2140166B03946012005941EF0E0FD0546002846D027
S2140166C021463A4628F01AF905ABCDE90143009474
S2140166D02B46012250464946FFF7BCFE044680B1D0
S2140166E010F18C0F08BF6FF08D043A460021284642
S2140166F028F004F928461EF0D0FD204607B0BDE874
S214016700F08F144BC5E902A92B60C5F804B02EB171
S2140167103246414605F1100028F005F9059E0E485F
S2140167203B462A463146006814F074FB18B93046D9
S214016730FFF750FED9E76FF09104D6E76FF08604B5
S214016740DBE76FF09104D8E76FF08504D5E76FF0CB
S2140167508C04D2E7105D175E040B00202DE9F04390
S2140167608DB08146DDE914780E4615461C469BB170
S214016770B8F1000F05D16FF0860630460DB0BDE8C2
S214016780F083002FF7D0B7F1005FF4D3C3F10053C5
S21401679003F500439F42EED81022002108A828F0F6
S2140167A0ADF8002207AB029305AB019306AB314669
S2140167B00093484608ABCDE90522FFF74BFE064697
S2140167C00028DAD1059BA4B1AB4215D853EA0504DB
S2140167D0D1D1069B0B48C8F8004000943A46079969
S2140167E000682B4414F0AEFB002818BF6FF091062A
S2140167F0C3E7AB42EDD2BEE75B1B9C4228BF1C46FB
S214016800E7E700BF040B002030B58DB00C46054607
S2140168101022002108A828F071F8002207AB029385
S21401682005AB019306AB21460093284608ABCDE99C
S2140168300522FFF70FFE0446D8B9099B012B1BD092
S214016840079D104B2946186814F014FCB8B90122AC
S214016850A5F506230C49A3F550635B0905F01F0057
S214016860824051F823004240284641F82320FFF792
S214016870CDFD20460DB030BD6FF08404F9E76FF012
S2140168809104F6E7040B0020441B00202DE9F04F8D
S21401689089B007460E46FFF7C5F8C00709D4042499
S2140168A001201EF0ABF880B3013CF9D16FF09200E5
S2140168B028E0102200210DEB020028F01FF804A8A2
S2140168C0FFF712F9049B002BE9D0059B002BE6D0BD
S2140168D0069B002BE3D0079B002BE0D00025DFF8BA
S2140168E0808008F10409B54219D34FF48A74FFF782
S2140168F093F800F00E03062B2DD1C30501D5FFF743
S214016900BDF8002009B0BDE8F08FFFF785F810F05C
S2140169100E03FAD0022BF8D04105DFD5C4E7FFF706
S21401692075F8A6EB050A8400544528BF544699E835
S214016930030000238DE80300CDE9054307EB050BB3
S214016940CDF810B0029404AAD8F8003007CA1DF09A
S2140169504EFF2544C7E724FA03F3DA07A6D5C6E7B0
S214016960D00104001FB504A800E90E0011460198E5
S214016970FFF78CFF70B1FFF721FBBFF34F8F07497D
S214016980074BCA6802F4E0621343CB60BFF34F8F34
S21401699000BFFDE705B05DF804FB00BF00ED00E0B9
S2140169A00400FA052DE9F0438BB01746DDE91545DD
S2140169B0DDE913269C46DDE91738894621B96FF0D3
S2140169C086000BB0BDE8F083002FF8D00EB9002C7E
S2140169D0F5D1129909B9002AF1D10DB9002BEED1E2
S2140169E0B8F1000FEBD0244A944541D10288B2F5A4
S2140169F0105F3DD14288B7EBD20FE0D322F04001C1
S214016A00802902D0B2F5807FD9D16CB3AE421CD2B8
S214016A103219954219D29C42D1D83146224628468F
S214016A2027F052FF2E4614F00F03C8D1CDE9019787
S214016A30CDE90336CDE90543CDE907540993FFF7C0
S214016A40B1FC38B16FF09200BBE79C42EBD96FF016
S214016A508900B6E707AA04A901A8FFF709F90546C0
S214016A60FFF7ACFC0543EDD10020C8F80040A8E7CD
S214016A706FF08500A5E700BF004440042DE9F04F04
S214016A80A9B0834617469A460E46DDF8C890DDF84B
S214016A90D88029B96FF08603184629B0BDE8F08F73
S214016AA0002AF7D0B9F1000FF4D0349B002BF1D0B7
S214016AB0B8F1000FEED00024424B0CAD93E807006E
S214016AC085E807003C22214619A8189427F016FFEE
S214016AD03388728803F4E040B0F5804FDAD03A4E3E
S214016AE03A480BEA060646F01066864263D1B2F5CE
S214016AF0807F60D147F2121293425CD10620344A5D
S214016B00BAF11F0FD3680E940B931369126800FB3A
S214016B1003F3CDE90C23BDD9339B402BBAD9359B62
S214016B201F2B4BD909F1010220261292402299F817
S214016B3000300F97042B18AFCDE91324CDE9157259
S214016B40109611941794A5D1FFF72CFC0346002844
S214016B50A2D10B9B15AACDE9086305AB07CA83E84A
S214016B60070002AB12AA07CA83E80700DDE9100195
S214016B708DE803000F9B95E80700FFF753F90546DC
S214016B80FFF71CFC55EA000384D13D46349A20AE3B
S214016B902C4603CCB44210605160254602F108022F
S214016BA0F6D100221146B9540132402AFBD12022E7
S214016BB0C8F8002070E76FF085036DE76FF0890372
S214016BC06AE700BF5C0004000000FFF6000002094F
S214016BD070000400F0B50E461D468BB0002853D059
S214016BE0002951D0002A4FD0002B4DD0048804F440
S214016BF04F43B3F5824F03D06FF085000BB0F0BD65
S214016C00E3B224F0FF04B4F5E24FB0F802C0F3D1CA
S214016C10122B01D0172BEFD10CF10701B2EBD10FDC
S214016C204FEAD10733D31D4A04ACBCF5807F07CAAF
S214016C3084E80700E0D1122B07D1194B1A691B68AB
S214016C401344CDE90432002306930023CDE90767F8
S214016C500993FFF7A7FB0028D0D1124A02AB92E8AE
S214016C60030083E803000AAB13E903008DE8030081
S214016C70079B94E807001DF03FFD0446FFF79EFBC7
S214016C80204307D12F60B9E76FF08600B6E76FF0B3
S214016C908900B3E76FF09200B0E700BF5C00040024
S214016CA070000400C80104002DE9F0438FB01D46B2
S214016CB0DDE916C600285CD000295AD0002A58D033
S214016CC0002B56D0BCF1000F53D0002E51D00388B4
S214016CD003F44F44B4F5824F51D1DCB223F0FF03E5
S214016CE0B3F5824F40884AD0122C01D0172C46D1DA
S214016CF0C31DB2EBD30F4FEAD3083AD34FEA48028B
S214016D00571C674538D8B0F5807F38D1122C18BF8C
S214016D104FF000094FF0000308BF1C4CCDE90818DE
S214016D2005F1010114BF4C46D4F80C90CDE90B12C5
S214016D300A930D93FFF736FBC0B9CDE9058902AB7F
S214016D4008AA07CA83E807000EAB13E903008DE81B
S214016D5003000B9B94E807001DF0EDFC0446FFF7CB
S214016D602DFB20430ED104232B7037600FB0BDE8F6
S214016D70F0836FF08600F9E76FF08900F6E76FF0B1
S214016D808500F3E76FF09200F0E700BF70000400A3
S214016D902DE9F04389B00E4615461F46DDF84880BA
S214016DA020B96FF0860009B0BDE8F0830029F8D05D
S214016DB0002AF6D0B8F1000FF3D0038803F44F424F
S214016DC0B2F5824F02D06FF08500ECE7DAB2122AF4
S214016DD001D0172AF7D123F0FF03B3F5E24F41D1D3
S214016DE04488C8F8004044B9EB00B3F5807FC8F882
S214016DF00030E8D1122A0DD108E0E31DB5EBD30F20
S214016E00CFD1B4F5807FDED1122A29D1354B1C684B
S214016E101B691C440023194670192C4414F801CD33
S214016E2010F8012D1143B2EB0C020CBF4FF0FF3CE2
S214016E304FF0000C86420CEA030343EA0203EDD14D
S214016E400029AED0002BACDA109B9D4246D82A46CC
S214016E503146384627F067FD119B00201D60A2E7EA
S214016E600024D7E73378042B9BD16B1EDB005B082D
S214016E70B3F5807FC8F80030A5D1122A06F10103C8
S214016E8018BF4FF000094FF0400205934FF0000382
S214016E900ABF144C4C46D4F80C90CDE90623FFF7F4
S214016EA081FA00287FF47FAFCDF80C90D8F8003037
S214016EB00733DB08029308AB13E903008DE80300F0
S214016EC0059B94E807001DF0E3FC0446FFF776FAFD
S214016ED000287FF468AF002CB6D062E76FF0890017
S214016EE061E700BF700004000388B3F5105F0ED1A0
S214016EF04388DB08103B102B0CD8084A22FA03F310
S214016F0013F0010F14BF00206FF0860070476FF07A
S214016F10850070476FF08600704700BF01010100D1
S214016F202DE9F04F8FB01546DDE918A91E46DDF8AC
S214016F3068801C9F09B300B3B8F1000F1DD0E7B1FC
S214016F40BAF1000F02D1B9F1000F16D1274B26F482
S214016F507E129A42B0F802B044D1FFF7C5FF04464C
S214016F60A8BBB5EBDB0F4FEADB0306D316F47C1F99
S214016F70C6F3054504D0102D03D96FF0860426E02C
S214016F8010251B9A95422AD8CDE901130023102219
S214016F90CDE905930DF12809CDE9033ACDE908239A
S214016FA0CDF81C90FFF7FEF9044680B907AA04A99C
S214016FB001A8FEF771FE0646FFF700FA044656B929
S214016FC058B92A464946404627F0ADFC3D60204662
S214016FD00FB0BDE8F08F6FF092040025F6E76FF072
S214016FE08904F4E76FF08504F1E700BF0002C003EF
S214016FF02DE9F041069F0C461646054610B309B327
S21401700002B9FBB96288B3EBD20F4FEAD20819D3A3
S2140170104C220021284627F071FC0D4B27F47E12E6
S2140170209A4212D12046FFF75FFF044638B942461E
S2140170303146281D27F077FCC5F824802F602046AE
S214017040BDE8F0816FF08604F9E76FF08504F6E796
S2140170500002C0032DE9F0410E46144605460028FD
S21401706040D000293ED092B10368214823F47E1314
S21401707083423AD1AF6BF7B1C7F1100807F1280088
S2140170804245284406D2274427F04DFCAF63002032
S214017090BDE8F081424627F046FC1022103C3C1920
S2140170A0AA63F4D0284605F128011DF09AFD0028B0
S2140170B0EED14644A863102C0CD9671E27F00F07A3
S2140170C03A46314628461DF08CFD0028E0D1E41BE7
S2140170D0DDD03E442246314605F1280027F023FC48
S2140170E0AC63D4E76FF08600D2E76FF08800CFE795
S2140170F00002C0032DE9F04388461F4605468BB0C3
S21401710070B169B163B10368234923F47E108842E4
S2140171103ED113F47C1FC3F3054604D0102E03D9C9
S2140171206FF086042AE0102696422BD8FFF73AF92C
S214017130044618BBAB6B05F12802CDE901236B6A47
S2140171402A1DCDE904231023CDE9083007AB1A46E2
S2140171500390069005F13C0901A904A8CDF81C90FE
S214017160FEF7BEFD0546FFF729F904466DB928B9B5
S21401717032464946404627F0D6FB3E6020460BB0D5
S214017180BDE8F0836FF08904F8E76FF09204F5E745
S2140171906FF08504F2E700BF0002C00307B56B4637
S2140171A0054A1068516803C36846FDF79FFF002033
S2140171B003B05DF804FB00BFDC01040013B5002436
S2140171C0064A6846536F43F00103536700948DF8EF
S2140171D00440FDF7C3FE204602B010BD004000503B
S2140171E030B58BB06C46174D0FCD0FC40FCD0FC405
S2140171F095E8030084E80300134BD3F84C211203EF
S2140172001CD5A3F5FE431C884FF6FF739C4208BFAE
S2140172108C248DF81940FDF7A7FC204480F3080064
S2140172208DF818000948FCF793FD6846FDF7BCFB8E
S2140172303220FDF715FD00200BB030BDD3F85041CC
S214017240E4B2E6E7E40104000080E00F00F0490242
S21401725030B5094D87B001AC0FCD0FC42B6801A81E
S214017260236019238DF80530FDF7B6FC3220FDF7B3
S214017270F1FC002007B030BD0C0204006FF00403DF
S214017280502110B50A480B4C13F0800F03F1010290
S21401729007D12344402A83F800131346F4D1002073
S2140172A010BD03F00F03043B034419761346EBE7C6
S2140172B000ED00E000E100E010B504461CF0B0FF70
S2140172C0024B1C601CF0B0FF002010BD581B0020B4
S2140172D010B51CF0A5FF034B1C681CF0A5FF20464B
S2140172E010BD00BF581B0020034B02221868002364
S2140172F0806819461BF08EBA080C002030B514467B
S214017300054687B010461DF044FD63690246834278
S2140173103CBFD4E903315B181B1A7BB10F490494B7
S21401732003910021CDE90131012300932846D4E9D8
S21401733000131CF040FE002007B030BD012262762B
S21401734094F82D20002AF6D084F835301321E3690D
S214017350204698472046636A9847ECE7FD7201008D
S2140173602DE9F04788B004460F46164698461CF0AD
S2140173705EFF8146002E7AD0237E03F0FF02002BAB
S21401738000F0A28020461DF004FD6569A84205D1E3
S214017390637ED4E9033213445D1B01E0F9D9451B32
S2140173A0B54228BF35461CF042FF94F82D30824680
S2140173B0002B6DD12A463846616927F0B4FA636915
S2140173C02E462B44636121E0037803F0FD01112969
S2140173D05BD1216B814205D1A3F111014B424B4197
S2140173E084F83430013E6369216B01328B4203F12C
S2140173F0010308BF2363636195426069E4D1D4E960
S2140174000323216B1344994200D122630025D4E95A
S214017410032361691344994208BF6261207A657645
S214017420FCF7E4FE20461DF0B4FC6369834232D1CA
S214017430257694F82D30E568656103B1256320460D
S214017440636A9847214B04940393002302932369AC
S2140174502A4601930123009363682168207A1CF071
S214017460AAFD207AFCF7E2FE50461CF0E6FE4846EE
S214017470C8F800601CF0E1FED8F80030002B0CBF05
S2140174801B20002008B0BDE8F08707F8013BAAE7FB
S2140174902E460022B0E70123207A23760DF11E0145
S2140174A0FCF72CFF9DF81E30002BDAD00DF11F01E2
S2140174B0207AFCF7FBFE9DF81F100029D1D1224649
S2140174C0207AFFF71BFFCCE71646D0E7FD720100D6
S2140174D0002807DB01234109034A00F01F0083400F
S2140174E042F82130704700BF00E100E0002808DBC9
S2140174F001224309034900F01F008240603341F82E
S2140175002320704700E100E070B504460568FFF7E8
S214017510DFFE844202D10020FFF7CEFE95F93660E9
S2140175203046FFF7E3FF002E0CDB012219497309F1
S21401753006F01F06B240203341F82320BFF34F8FD9
S214017540BFF36F8F95F937603046FFF7CFFF002EF8
S2140175500CDB01220F49730906F01F06B2402033E7
S21401756041F82320BFF34F8FBFF36F8F287AFCF7C4
S2140175707DFE287AFCF7E0FDFCF7BCFD00232846DB
S214017580C4E90033C4E90433A360AB6ABDE87040C4
S214017590184700BF00E100E02DE9F0430C46154610
S2140175A0064687B04022002120461F4627F0A6F94E
S2140175B095E8030000232A692376EB6884E8030034
S2140175C0C4E904232A7DE36084F82C20AA7D236382
S2140175D0012384F8343084F835300E9B84F82D204E
S2140175E023620F9BE7616362109BA3622B7A84F888
S2140175F036306B7A84F837302D4B346073602D4B00
S214017600B3602D4B33612D4B73612D4BF360FCF74B
S214017610B9FD38B12B4B984204D01024204607B050
S214017620BDE8F083002104F10800FCF733FD0746AE
S2140176300028F2D14FF00108234B3362234B84F824
S2140176403C80B361224BF3619DF8483084F83900E1
S21401765084F83B309DF84430204684F83A30697D02
S21401766084F838801DF0A5FB95F909904846FFF788
S2140176703DFF4846FFF72CFF164B0494CDE90273F5
S2140176802369CDE900836368E2682168207A1CF0EB
S21401769092FC04460028C0D195F908502846FFF709
S2140176A025FF2846FFF714FF3046FFF705FEB5E72E
S2140176B0034E030061730100814D0300874D0300F3
S2140176C009750100038000F05B4D0300B34D030014
S2140176D08D4D0300FD7201002DE9F04101271C4686
S2140176E0584B86B00293584B0C9D0193574B9046CE
S2140176F000930A46CDE903772946554BFFF74CFF21
S2140177000646002840F09680236839462B64636855
S2140177103A206B64637A85F84930237A85F84830D5
S214017720E37A85F84B30A37A85F84A30637B85F88F
S2140177304D30237B85F84C30E37B85F84F30A37BB7
S21401774085F84E30FDF72CF83B460422617A207A04
S214017750FDF706FD3B460222E17AA07AFDF700FD21
S21401776039466068FDF71CF888F8006041462068D5
S214017770FDF716FF1422637C5B0103F1A04303F5BA
S2140177807033C3F81C26617A227A42EA0142C3F8B2
S2140177903426E17AA27A42EA0142C3F82C2685F819
S2140177A0506098F81930032B4AD8DFE803F03447C5
S2140177B0021C022385F8503000230422E17BA07BC3
S2140177C0FDF7CEFC022741F21C61627C214B03EBE4
S2140177D042104750E07BA17BB13241EA004103EB06
S2140177E04213996017E0012785F8503002220023E2
S2140177F0617B207BFDF7B4FC637B227B617C42EAE4
S2140178000342154B49015A500422236803F580535D
S214017810DA65002FD0D1237A2A6C85F84830637A4E
S214017820052185F84930D36C206843F00403D364FE
S2140178301CF037FD304606B0BDE8F0810027D3E7DF
S2140178402326F7E7314F0300254F0300BD4F030002
S214017850B14F030000C0035024D60350BFF35F8F1F
S214017860074B5A6A22F480325A62D3F8942022F0E7
S2140178700102C3F89420BFF34F8FBFF36F8F704799
S21401788000ED00E070B52948294CFFF7E7FF844278
S214017890284D294919D1D5F8C03023F0FF0343F00C
S2140178A0A003C5F8C0304FF080430A68214D234E2F
S2140178B0C5F8982043F0010301328442C5F89C6064
S2140178C0C5F8A0300A601ED00DE0D5F8C02020F023
