S0190000426C652063656E7472616C206465766963652E7333372F
S214012000C00A0020AD3A01004F3D03004F3D0300DA
S2140120106B4E03004F3D03004F3D03004F3D030051
S2140120204F3D03004F3D03004F3D03004F3D03006E
S2140120304F3D030038FE0300353B03004F3D0300D0
S2140120404F3D03004F3D03004F3D03004F3D03004E
S2140120504F3D03004F3D03004F3D03004F3D03003E
S2140120604F3D03004F3D03004F3D03004F3D03002E
S214012070F98801004F3D03004F3D0300F133010095
S214012080EB3B03004F3D03004F3D03004F3D030074
S2140120904F3D0300DD4101004F3D03004F3D03006E
S2140120A04F3D03004F3D03004F3D03004F3D0300EE
S2140120B04F3D03008D1303004F3D0300E91D030050
S2140120C027E5030023E50300D915030033E50300E4
S2140120D02BE50300C11D03002FE50300291E0300A5
S2140120E0C1F6020085F80200991E03004F3D030069
S2140120F04F3D03004F3D03004F3D03004F3D03009E
S2140121004F3D03004F3D03004F3D03004F3D03008D
S2140121104F3D03004F3D03004F3D03004F3D03007D
S2140121204F3D03004F3D03004F3D03004F3D03006D
S2140121304F3D03004F3D03004F3D03004F3D03005D
S214012140013800D0FCE77047002370B5404C0546C7
S2140121508AB0E36318B1008823600DF071FB3D4837
S2140121602BF088FC3C4E3D4B304633603C4B736055
S21401217027F0F4F80021304619F02AF832A3D3E903
S2140121800023A062C4E9062327F0F3F8D4E9062366
S21401219019431043C4E90601CDE900014FF0FF33AE
S2140121A04FF0FF32A06A2BF0E0FC02224FF0FF3125
S2140121B0A06A2BF0DFFC01200DF044F84FF4007309
S2140121C000222849A06A2BF029FDB0F5007F38D1FE
S2140121D000239422CDE9073309933C23CDE903324A
S2140121E005939623A06A03A9069319F00FF935B350
S2140121F0287C0DF0E3FC0546F0B9A06A2BF0EFFD54
S2140122000DF08AFC0DF000F820B14FF4807000212B
S21401221009F008FE0DF008F820B14FF40060002127
S21401222009F000FE27F080F9012019F025F80E4A82
S2140122300E49A06A27F090F828460AB070BDFF2024
S214012240D7E70725F8E700BF0DD5015520000000A8
S214012250580F0020690345EC58210020C9F0010001
S21401226068210020581F00200193030041930300BA
S2140122700348044B834202D0034B03B1184770470F
S214012280E40E0020E40E002000000000064B074983
S214012290C91A891048BF0131491003D0044B0BB14C
S2140122A001481847704700BFE40E0020E40E0020E6
S2140122B00000000010B5064C237843B9FFF7D8FF9D
S2140122C0044B13B10448AFF300800123237010BD03
S2140122D03E290020000000007048040008B5054BA8
S2140122E01BB105490548AFF30080BDE80840FFF77C
S2140122F0CDBF00BF00000000B811002070480400E8
S214012300A3F5803A704700BF174B002B08BF134B4D
S2140123109D46FFF7F5FF00218B460F461348144AEA
S214012320121A2CF0E9F90E4B002B00D098470D4BF2
S214012330002B00D098470020002104000D000D4816
S214012340002802D00C48AFF3008020F095FA200058
S214012350290021F0E3FB1FF0BBFF00BF00000800CF
S2140123600000000000000000C00A0020E40E00206B
S214012370EC2A0020000000000000000000B5034623
S214012380A3B0B8B100780C4A002808BF134671B153
S2140123900A4A009102A8802120F0BAF921F070FCC7
S2140123A021F06FFC064B02A9186822F0A6FB23B0A9
S2140123B05DF804FB004BEAE740F603004AF603002B
S2140123C09012002030B5544B87B0029344F609436F
S2140123D0ADF80C3031238DF80E30504B504D1B7834
S2140123E00F2230338DF80F3043F24613ADF810301C
S2140123F04C4B00211B78287830338DF8123003239C
S2140124008DF8133040F2FF23ADF8143004238DF815
S214012410163002AB11F0CCF8044618B3424D4349CE
S214012420286822F06AFB4249286822F066FB21F000
S21401243027FC21F026FC3F4B3F4A00933F4940F2E0
S2140124401F23286822F059FB3D4923463D4A286848
S21401245022F053FB204601F035F93B49286822F06B
S2140124604CFBFEE7A022009003461146287811F0A7
S2140124707DF8044618B32C4D2C49286822F03DFB04
S2140124802B49286822F039FB21F0FAFB21F0F9FBF1
S214012490284B294A009329494FF40A73286822F0E9
S2140124A02CFB27492346274A286822F026FB20468C
S2140124B001F008F92449286822F01FFBFEE70146CF
S2140124C0287811F08BF8054618B3174C1749206881
S2140124D022F013FB1649206822F00FFB21F0D0FBF7
S2140124E021F0CFFB134B144A0093144940F22D23DD
S2140124F0206822F002FB12492B46124A206822F07D
S214012500FCFA284601F0DEF80F49206822F0F5FAB9
S214012510FEE707B030BD00BF02010607B129002063
S214012520E30C0020AE290020901200201EFA0300C2
S2140125305BF6030099FA030060F6030069F60300F0
S21401254078F6030075F603008DF6030037B51748D5
S21401255010F0F4FF054618B3154C1649206822F012
S214012560CCFA1549206822F0C8FA21F089FB21F03F
S21401257088FB124B124A0093124940F23623206818
S21401258022F0BBFA10492B46104A206822F0B5FA11
S214012590284601F097F80E49206822F0AEFAFEE7C9
S2140125A003B0BDE83040FFF70DBF00BFE30C0020CD
S2140125B0901200201EFA03005BF6030087FA030060
S2140125C060F6030069F6030078F6030075F603006B
S2140125D08DF603002DE9F04FBBB00368B14A23F432
S2140125E07F4323F007039342044606AF00F0B6820A
S2140125F038D8AD4A934200F0C9810CD8A2F5A02282
S214012600934263D002F58022934200F0ED80D437E6
S214012610BD46BDE8F08FA54A9342F8D1A44C837914
S214012620E27F9A4240F0578421F02AFB21F029FBF1
S214012630A04BA149186822F060FA002384F82030E4
S2140126409E4A1378002B40F09E840121084611F023
S214012650D1F89B4B014618609A48FFF78FFE00227F
S214012660994B31E0994A934200F0FA8202F10072E6
S214012670934200F06E8302F17C429342C7D1237AE3
S214012680B0F80500022BC2D14FF60173B4F8092049
S2140126909A4200F0A8824FF602739A42B7D10123FC
S2140126A08B4921F813008B4907F16C0020F064F880
S2140126B021F0E6FA21F0E5FA7E4B07F16C01186885
S2140126C022F01BFA0422804B1A70A0E7FFF73EFFA8
S2140126D06189E388A28801912189764C00917E4E1A
S2140126E07E4907F1080020F047F821F0C9FA21F0E9
S2140126F0C8FA206807F1080122F0FFF9337853BBC6
S2140127007749784811F08AF8054610B3764920686B
S21401271022F0F3F97549206822F0EFF921F0B0FABA
S21401272021F0AFFA724B734A0093734940F2DB1300
S214012730206822F0E2F971492B46714A206822F09E
S214012740DCF9284600F0BEFF6E49206822F0D5F974
S214012750FEE7012333706349614B0A7818784B7999
S21401276004924A78564D03928A780292CA78019268
S2140127700A7965490092654A002818BF0A466449E5
S21401278007F16C001FF0F8FF21F07AFA21F079FAD0
S214012790206807F16C0122F0B0F9A0224FF4A07175
S2140127A0002011F003F8014628605A48FFF7E6FDBD
S2140127B0002450214FF6FF7322460846CDE9004318
S2140127C0642310F01FFF014628605348FFF7D6FD2B
S2140127D00121084611F00EF8014628604F48FFF720
S2140127E0CDFD394B1C7012E70026837DDFF8C490BF
S2140127F000F1170A7B607B689E42BFF408AF0AEBC4
S21401280006035B781AF80650082B40F0BB80AB1D18
S21401281003F4FC73EB46ADEB030D0DF11808B11C88
S2140128206A1E514440463A602BF07BFF00233A680B
S21401283040463B4908F802302BF069FFE8B978605A
S21401284021F01EFA21F01DFA3649D9F8000022F0CF
S21401285054F910F0C3FFE27A33490091A17A607A05
S2140128607B6840EA0120194660F30F010123D4F882
S214012870050010F0EBFEDD46C9E640462B492BF07D
S21401288046FF002858D1786021F0FAF921F0F9F9CD
S2140128902749D9F8000022F030F910F09FFFE27ABC
S2140128A02449DAE7A0000901A0000600A0000601FD
S2140128B04729002090120020F7F90300AA290020DA
S2140128C0D411002072FA0300AB290020A0000904ED
S2140128D0E4280020A1F8030046290020BAF60300E8
S2140128E03F290020402900201EFA03005BF6030062
S2140128F0B1FA030060F6030069F6030078F60300F8
S21401290075F603008DF603009EF60300ACF6030091
S214012910E1F6030016F7030025F7030028F7030086
S21401292038F7030040F70300662900205EF703002E
S21401293066F70300872900204046AC492BF0E7FEE6
S2140129408046A8B921F09CF921F09BF9A849D9F84D
S214012950000022F0D2F810F041FFA64BE27A009375
S214012960A17A637A43EA0123414663F30F017DE7C7
S21401297021F086F921F085F99F49D9F8000022F067
S214012980BCF8DD4601353544EEB234E79B4E057B97
S214012990F37F9B4CAB420BD121F072F921F071F918
S2140129A0984B9949186822F0A8F8237801332370C8
S2140129B096F84030AB420BD121F062F921F061F973
S2140129C0904B9249186822F098F8237801332370C7
S2140129D096F86130AB420BD121F052F921F051F952
S2140129E0884B8B49186822F088F8237801332370C6
S2140129F001262378874D022B2E7033D8814C21F087
S214012A003FF921F03EF98449206822F076F83146F4
S214012A10304610F0EFFE814E306008B380492068E2
S214012A2022F06BF87F49206822F067F821F028F938
S214012A3021F027F97C4B7D4A00937D49F0232068DD
S214012A4022F05BF87B4933687B4A206822F055F810
S214012A50306800F037FE7949206822F04EF8FEE72C
S214012A602870D4E510F0BAFE4FF00008DFF88C911C
S214012A70DFF8E0A1694E237843451FDD5246022167
S214012A8099F81F0010F022FE252830603CD1022064
S214012A9000F0D2FD60B15B4C6949206822F02DF848
S214012AA021F0EEF821F0EDF86649206822F025F8CD
S214012AB00121084610F09EFE306010B903232B70EA
S214012AC0A5E5504C5649206822F017F8554920686C
S214012AD022F013F821F0D4F821F0D3F8524B534AE0
S214012AE000935349FC23206822F007F851493368C4
S214012AF0514A206822F001F8306800F0E3FD4F49A2
S214012B00206821F0FAFFFEE709F1210918B33D4CD0
S214012B104349206821F0F1FF4249206821F0EDFF8A
S214012B2021F0AEF821F0ADF83F4B404A0093404902
S214012B304FF48073206821F0E0FF3E4933683E4A37
S214012B40206821F0DAFF306800F0BCFD3B492068C0
S214012B5021F0D3FFFEE708F101088CE7D0F8052045
S214012B60394B284D1A6014F8098F21F089F821F0A5
S214012B7088F83649286821F0C0FF0026DFF8D8908B
S214012B80DFF8D8A0464510D321F07AF821F079F87D
S214012B902349286821F0B1FF21F072F821F071F87D
S214012BA02B49286821F0A9FF31E5494614F8012F81
S214012BB007F16C001FF0E0FD21F062F821F061F8EA
S214012BC0286807F16C0121F098FF08F1FF33B34242
S214012BD007D921F055F821F054F85146286821F01C
S214012BE08CFF0136CEE700235AE500BF84F70300C9
S214012BF08CF70300A8290020AAF703004729002024
S214012C00AA29002090120020BCF70300D3F7030086
S214012C10EAF70300AB29002001F80300D4110020D5
S214012C201EFA03005BF60300D2FA030060F6030007
S214012C3069F6030078F6030075F603008DF60300C7
S214012C4014F8030019F80300D011002060F80300FF
S214012C5081F80300E1FA03007AF803007FF8030025
S214012C60A6490279B0F80530C87FA54D904221D11A
S214012C70A44806889E420ED121F002F821F001F800
S214012C80E27AA149286821F038FFE27A9F4B1A7050
S214012C90FFF798FBBBE4408898420BD120F0F0FF89
S214012CA020F0EFFFE27A9A49286821F026FFE27ABF
S214012CB0984BECE791F8400090421ED19148068867
S214012CC09E420BD120F0DCFF20F0DBFFE27A924936
S214012CD0286821F012FFE27A904BD8E740889842A4
S214012CE00BD120F0CDFF20F0CCFFE27A8C4928688A
S214012CF021F003FFE27A8B4BC9E791F8611091420C
S214012D001ED1804A118899420BD120F0B9FF20F0DC
S214012D10B8FFE27A8449286821F0EFFEE27A834B15
S214012D20B5E752889A420BD120F0AAFF20F0A9FFFE
S214012D30E27A7F49286821F0E0FEE27A7D4BA6E739
S214012D4020F09EFF20F09DFF7B49286821F0D5FEEC
S214012D509EE77A4D04792B78032B40F09880674ED6
S214012D60F37F9C422FD1764B2046196810F0C4FCA5
S214012D70DFF8F081C8F8000028B3614C714920687B
S214012D8021F0BBFE7049206821F0B7FE20F078FFE5
S214012D9020F077FF6D4B6E4A00936E4940F2671341
S214012DA0206821F0AAFE6C49D8F800306B4A2068EA
S214012DB021F0A3FED8F8000000F084FC68492068E2
S214012DC021F09BFEFEE796F840309C422FD15C4BEB
S214012DD02046196810F090FCDFF88881C8F80000DA
S214012DE028B3474C5749206821F087FE564920688A
S214012DF021F083FE20F044FF20F043FF534B544A5A
S214012E000093544940F26B13206821F076FE524934
S214012E10D8F80030514A206821F06FFED8F800003B
S214012E2000F050FC4E49206821F067FEFEE796F858
S214012E3061309C422BD1424B2046196810F05CFC55
S214012E40484E306018B32E4C3E49206821F055FE9E
S214012E503D49206821F051FE20F012FF20F011FFBD
S214012E603A4B3B4A00933B4940F26F13206821F0EE
S214012E7044FE39493368394A206821F03EFE3068FD
S214012E8000F020FC3649206821F037FEFEE72B785B
S214012E90042B7FF4BCAB194BDA7F94420DD1324B35
S214012EA0304D1978174A91B10021197011882046C2
S214012EB010F038FC2860FFF7AABB93F84020944234
S214012EC0EDD093F861309C427FF4A1ABE7E7012196
S214012ED019705188EBE794F840209A4248D120F0C7
S214012EE0CFFE20F0CEFE2149054B186821F005FEE5
S214012EF0002384F84130FFF7A3BB00BF4729002019
S214012F0090120020E4280020D4F80300B129002004
S214012F10FEF80300B029002028F90300AF2900209D
S214012F2052F90300AE2900207CF90300AD290020E8
S214012F30A6F90300AC290020D0F90300AB29002034
S214012F40D01100201EFA03005BF60300D2FA03003C
S214012F5060F6030069F6030078F6030075F60300D1
S214012F608DF60300D4110020E20C002020FA0300A5
S214012F7094F861209A427FF463AB20F081FE20F042
S214012F8080FE0549B0E7013BDBB2022B13703FF62A
S214012F903EABFFF75ABB00BF49FA030030B50368E2
S214012FA07C4A23F47F4323F00703934289B040F021
S214012FB0EE80082200211220774B10F0C9FB044650
S214012FC010B3764D7649286821F097FD7549286833
S214012FD021F093FD20F054FE20F053FE724B734A0D
S214012FE0009373493D23286821F087FD71492346E4
S214012FF0714A286821F081FD204600F063FB6F4985
S214013000286821F07AFDFEE70146032214206C4B66
S21401301010F09EFB044610B3604D6149286821F00C
S2140130206CFD6049286821F068FD20F029FE20F03B
S21401303028FE5D4B5D4A00935D494B23286821F0CD
S2140130405CFD5C4923465C4A286821F056FD204613
S21401305000F038FB5949286821F04FFDFEE701468C
S21401306005221620574B10F073FB054610B34B4C48
S2140130704B49206821F041FD4A49206821F03DFD79
S21401308020F0FEFD20F0FDFD474B484A00934849DD
S2140130905923206821F031FD46492B46464A2068CF
S2140130A021F02BFD284600F00DFB4449206821F055
S2140130B024FDFEE70DF10F0104A810F0AFFB044656
S2140130C010B3364D3649286821F017FD3549286872
S2140130D021F013FD20F0D4FD20F0D3FD324B334A0E
S2140130E0009333496423286821F007FD31492346BC
S2140130F0314A286821F001FD204600F0E3FA2F4905
S214013100286821F0FAFCFEE7BDF8143001465BBAE8
S214013110ADF818309DF8133008228DF81A30FF23C9
S2140131208DF81B30FE238DF81C309DF812301820C8
S2140131308DF81D30BDF810305BBAADF81E3006AB09
S21401314010F006FB054610B3144C1549206821F013
S214013150D4FC1449206821F0D0FC20F091FD20F029
S21401316090FD114B114A009311497423206821F0F8
S214013170C4FC10492B46104A206821F0BEFC2846A4
S21401318000F0A0FA0D49206821F0B7FCFEE709B06F
S21401319030BD00BFA0000100E3FA0300901200203A
S2140131A01EFA03005BF603001EFB0300ECFA0300A5
S2140131B069F6030078F6030075F603008DF6030042
S2140131C014FB030018FB030010B5234C01F010FBA1
S2140131D001F030FD236F23F0070343F00303236759
S2140131E020F007FF1D4B00209B6A9B075EBF012254
S2140131F01B4B9A62D4F8203123F0030343F00203F9
S214013200C4F82031D4F8243123F0070343F0020335
S214013210C4F82431D4F8403123F0030343F0020309
S214013220C4F84031D4F8603123F0030343F00203BD
S214013230C4F86031D4F8403223F0030343F00203AC
S214013240C4F84032D4F8003223F0070343F00203F7
S214013250C4F8003210BD00BF0080005000C000500E
S21401326000E0005008B502F07FF801280ED1144B9B
S21401327004205A6E4FF480231249520358BF124A53
S2140132804B6601F51041086258BF536603F044FFD0
S21401329020F00EFD03F0D0FE03F028FF03F0EEFE53
S2140132A021F0DAFBFFF790FF03F0D6FE20F0F5FCE5
S2140132B000F0B6FC00F0CCFFBDE8084004F098BB77
S2140132C0008000500090005000A0005030B5224D04
S2140132D095B00DAC0FCD0FC495E80700032384E825
S2140132E007008DF84D3029231C4A1D49CDE90223DC
S2140132F01C4B0E22CDE904134FF4807300210DF10F
S214013300260006932BF0F8F94FF4A020164B07A9D8
S214013310CDE907030F238DF8243010238DF82530CF
S214013320124B0DAA0A9320230B9301238DF83130FB
S2140133300F4B1048009302AB04F01CF904469DF8AD
S21401334032304FF4E130002B0CBF0321002120F076
S214013350EFFC204615B030BD78FD03000000065096
S214013360000500060008000724000650B2290020C8
S214013370D81100202C120020831E012B10B512D864
S214013380012922D8114B04221B6905210020C3F311
S214013390401301F033FE0E4B1B681868A8B1BDE858
S2140133A01040436A18478B1E012B0CD801280CD8F5
S2140133B0BDE810400022054B05211B691046C3F3EA
S2140133C0401301F01BBE0129E5D910BD00C0035012
S2140133D0C00A002008B50449044804F0CFFBBDE844
S2140133E00840FFF773BF00BFC40A00205012002038
S2140133F0014821F0F0BC00BF2C120020014B1A6AD4
S214013400186810472C120020184B37B583422AD172
S214013410174B1B783BB3C8B210F046F9054610B3FC
S214013420144C1549206821F068FB1449206821F0E6
S21401343064FB20F025FC20F024FC114B114A00937C
S21401344011498523206821F058FB10492B46104A64
S214013450206821F052FB284600F034F90D49206817
S21401346021F04BFBFEE703B030BD00BF5812002031
S214013470D2290020901200201EFA03005BF60300FA
S214013480E6FD030094FD030069F6030078F60300E9
S21401349075F603008DF6030030B500250368584A1B
S2140134A023F47F4323F0070385B093420446029535
S2140134B0ADF80C507ED002F5802293420ED0A2F1D8
S2140134C08272934240F09A804E4B1B78002B00F09C
S2140134D0958005B0BDE8304021F0B0BDB0F80530AC
S2140134E01B2B40F08B80FF2304A91A4611E9030029
S2140134F020F0BFFB012814BF41F2FC15414B05F03B
S214013500FC0208BF18701B21207910F037F9054618
S21401351010B33D4C3D49206821F0EFFA3C49206844
S21401352021F0EBFA20F0ACFB20F0ABFB394B3A4A2A
S21401353000933A495923206821F0DFFA38492B468F
S214013540384A206821F0D9FA284600F0BBF83649F7
S214013550206821F0D2FAFEE7344900902379344AF4
S2140135600968344800F008F90546002846D0264C7C
S2140135702649206821F0C1FA2549206821F0BDFAC4
S21401358020F07EFB20F07DFB224B234A009323494B
S2140135906223206821F0B1FA21492B46214A20688E
S2140135A021F0ABFA284600F08DF81F49206821F07B
S2140135B0A4FAFEE7B0F80530B7EE047A07EE903AC3
S2140135C0F8EE677AB0F8073067EE877A013307EED0
S2140135D0103AB8EEC77A67EE877AB1EE047A67EEEC
S2140135E0877AFAFE677AFCEEE77A17EE903AB3F539
S2140135F07A7F38BF4FF47A730C4A136005B030BD3A
S214013600A0000602D2290020901200201EFA030014
S2140136105BF60300F5FD030094FD030069F6030065
S21401362078F6030075F603008DF60300CC0A002039
S21401363009340100581200200B4B02461B7883B157
S2140136400A4B1B78834234BF00200120084B1B78AD
S21401365033B1084B1B78134113F0010F08BF00204C
S21401366070470120F2E700BFE60C0020E50C0020C1
S214013670D3290020E40C0020012208B5074B1A705C
S2140136800022074B1A700422064B1A701F22064BA3
S2140136901A7003F06BFD054B186008BDE60C0020A0
S2140136A0D3290020E50C0020E40C00209012002015
S2140136B0024B0349186821F020BA00BF901200207F
S2140136C015FE030070B50C4C0C490646206821F027
S2140136D014FA03F04BFD0546206803F03BFD304627
S2140136E0FFF7E6FF284603F035FD20680449BDE8EC
S2140136F0704021F002BA00BF9012002017FE0300AE
S21401370019FE030038B5054620F08FFC00230B4A4E
S21401371014685CB1AC4206D1A96A6BB1996220F01B
S2140137208AFC012007E02346A46AF2E7002DF3D0C5
S21401373020F081FC204638BD1160F0E7941200208D
S21401374010B5044698B104F083FE2046FFF7DAFF71
S21401375010B194F82C300BB9002010BD20F065FC98
S214013760044A1368013B136020F065FCF4E722204D
S214013770F3E700BF981200202DE9F04385B0054617
S214013780914698460E469DF8307009B9002F5CD1D7
S2140137902846FFF7D5FF0446002836D185F82C00C9
S2140137A0686304F047FF864233D904F0E3FE2146FE
S2140137B0844640F2E7304FF47A720023E6FB0C01B0
S2140137C01EF0EEFB4FF0FF3200231EF0E9FB2B4606
S2140137D0E88611462846CDE900441D4A21F0BBFB88
S2140137E0044690B9C5E9089885F82D702E6320F037
S2140137F01CFC184A136833B31A469B6A002BFBD18C
S21401380095620023AB6220F016FC204605B0BDE8A9
S214013810F08347B12B4631462846CDE900440C4A91
S21401382004F0CCFEDCE7304603A904F0A9FE04460A
S2140138300028EAD12B462846CDE90077044A0399A9
S21401384021F065FBCCE71560DBE72124DDE700BF4F
S214013850593801009412002091F82C3013B50C460B
S21401386083B98B8ECA8E93420ED243B9CDE900330B
S21401387020460B46104A4FF0FF3121F02CFBA38E59
S2140138800133A38602B010BD52B191F82D307BB141
S21401389001230093D1E908232046096BFFF76CFF4B
S2140138A00123064A84F82C30136801331360E9E7D4
S2140138B0084604F0CDFDF3E75938010098120020C0
S2140138C02DE9F041144E336823B34FF00008134F2F
S2140138D020F0ABFB05463C6824B92846BDE8F0411C
S2140138E020F0A9BB94F82C3093B1336884F82C806F
S2140138F0013B336094F82D3013B92046FFF702FFE1
S214013900284620F098FBD4E9083120469847DFE79F
S214013910A46AE1E7BDE8F081981200209412002025
S214013920034B1B68002B14BF04200120704700BF07
S21401393098120020024B1868B0FA80F040097047D0
S2140139409812002007B5082020F01CFA02238DF8F3
S2140139500030054B6846019320F0AEF9082003B00D
S2140139605DF804EB20F019BA006A18102DE9F0474B
S214013970434D88B001AC0FCD0FC495E80700012573
S21401398084E8070001213A2000F058FEDFF8FC80A9
S2140139900121282000F052FE3A4B404601A903932C
S2140139A08DF8125001F0CCFD2B4604220021022096
S2140139B001F024FB2A4629460023022001F01EFBC3
S2140139C002212B460846042201F018FB04222B464E
S2140139D01146002001F012FB4FF002132A4C02267A
S2140139E0C4F83036A3F58033C4F82C361C231027D0
S2140139F0C4F8346604F5005AC4F81C364FF448700F
S214013A0004F0ACFF04F580591420CAF8107004F0D5
S214013A10A5FF2320C9F8107004F0A0FFB921404685
S214013A20CAF8107020F04AFB002330461A461946A1
S214013A30C9F8107001F0E2FA002329461A4630460A
S214013A4001F0DCFA2B4631463046002201F0D6FA68
S214013A5000222B461046042101F0D0FA404601F020
S214013A60C5FC00212820C4F83016C4F82C16C4F86A
S214013A703416C4F81C1600F0E1FD08B0BDE8F08766
S214013A801CFE030000127A0000C0035000C005505F
S214013A900348044A0449121A921020F059B900BF8B
S214013AA0A84C0400A84C0400EC2A002008B500F03D
S214013AB02FF8FFF7EDFF124B12498B4212D300206D
S214013AC0114B12498B4218D3FEF71EFC186850F8AA
S214013AD02240586840F82240013298688242F5D365
S214013AE00C33EAE70022F8E71C6844F822000132AA
S214013AF05C68A242F8D30833E4E70022F8E700BF87
S214013B00784804008448040084480400844804007B
S214013B104FF400414FF0FF30124B134A10B59A6034
S214013B20D3F8882042F47002C3F888200F4A9166C1
S214013B3001F1884101F5005210664FF6DF705066BC
S214013B400220C3F8D000BFF34F8FBFF36F8F082456
S214013B504FF440330648C0F88041D36004600B61DF
S214013B6010BD00BF00ED00E00020010000900050F5
S214013B7000E100E0014B1868704700BFD40A00203E
S214013B80084B1B6F03F00703022B04D0032B05D051
S214013B90012B05D0FEE7044B18687047034BFBE783
S214013BA00348704700800050D40A0020DC0A002039
S214013BB0002D310108B5FFF7E3FF054B1B6FC3F37B
S214013BC003330133B0FBF3F0024B186008BD00BFAE
S214013BD000800050D00A00200048704700B4C4049A
S214013BE0014B1868704700BFDC0A0020054B1860BF
S214013BF0054B1B6F03F00703032B01D1FFF7DABF59
S214013C00704700BFDC0A0020008000500048704763
S214013C10002D3101014B1868704700BFD80A0020FB
S214013C2000239B6A10B5B3F5903F11D219680A4A72
S214013C3091420DD1094C227812F0FD0F01D00020DF
S214013C4010BDDB6998470028FAD101232370F6E7F7
S214013C504FF48170F4E700BF07B0CD5ED429002091
S214013C604FF00053074A1A60BFF34F8F0649074BC0
S214013C70CA6802F4E0621343CB60BFF34F8F00BF04
S214013C80FDE700BF02020FF000ED00E00400FA05B8
S214013C900346054A0549106803448B428CBF4FF022
S214013CA0FF301360704700BFE00A0020008000204C
S214013CB008B501213A2000F0C1FC032101230422AA
S214013CC0002001F09BF9002020F0D0F90122214BC1
S214013CD04FF46070C3F8442420F0C2F81E4B00F580
S214013CE0D520D3F8F02000F2FC4042F00102C3F8E0
S214013CF0F020D3F8FC2042F08072C3F8FC20174A6B
S214013D00A3F55D431A60164B0222B0FBF3F0154B88
S214013D1001381861C3F8F0204FF48072C3F8042309
S214013D204FF06043104A0020C3F8B02F0F4AC3F883
S214013D30802ED3F8002E42F48072C3F8002EFF22A4
S214013D4083F82020D3F8002E22F48072C3F8002EC8
S214013D5008BD00BF00D0035000ED00E0FF030040A7
S214013D60F8590D00000004E055CEACC5090001006D
S214013D704FF06043D3F8802E30B5D20715D5012415
S214013D800B4D8440D5F8FC2042F08072C5F8FC202B
S214013D90D3F8002E2243C3F8002E53F82020002A21
S214013DA0F0D003F82010002030BD1120FCE700BF42
S214013DB000ED00E02DE9F04F9A46564B85B01B7892
S214013DC006460F461546DDF83C909DF844B0DDF8F2
S214013DD05080002B00F09780072A00F296800E9BF9
S214013DE0002B00F09280B9F1000F00F08E80129B3C
S214013DF0B3F5006F00F38980012803D1109B002BD7
S214013E0000F08380444B03EB05131B7B002B7ED015
S214013E10424C1022002168462AF06EFC04EB451441
S214013E201022A7BB394620462AF066FC43F210034F
S214013E306380BBF1000F03D1E37843F00303E37023
S214013E40364A0E9B02EB451CCCE90193129B690195
S214013E50581E9DF84C30C0F30A0003F003039B067E
S214013E6043EA001E53582E48012E00EA03004EEA8C
S214013E700003CDF800A0535017D0B8F1000F2ED193
S214013E809CF8023068F304138CF8023027E0002116
S214013E9020462AF031FC4FF444736380BBF1000FD7
S214013EA0CED1E37843F03003C9E713230CF1100EAB
S214013EB0CCF80C309CE80F008EE80F006FF0030181
S214013EC0DCF81C20109B61F39F02012FCCF81C200C
S214013ED0CCF8143003D1CCF81890CCF80430002775
S214013EE00D4A290102EB051342F80180159A28466E
S214013EF05A60694622469F605E7301F01DF9384696
S214013F0005B0BDE8F08F0748FAE70748F8E7074825
S214013F10F6E700BFD52900209C1300209C12002044
S214013F200F80FFF3028000F0018000F0078000F0B0
S214013F3038B5124B05461B78DBB1E0B120F075F8B9
S214013F400F4A00231146147B54B92B6001251A0130
S214013F5001EB03131D738C5020F06DF8204638BD1D
S214013F600133082B02F11002EDD120F064F8054868
S214013F70F5E70548F3E70548F1E700BFD529002036
S214013F809C130020048000F0028000F0018000F005
S214013F9038B520F04AF8002305460B4A147B6CB965
S214013FA00133082B02F11002F8D101F067F8074B34
S214013FB028461C7020F03FF8204603E0284620F0F3
S214013FC03AF8034838BD00BF9C130020D5290020CD
S214013FD0058000F00D4B10B51B78044693B10728F9
S214013FE012D820F022F80A4B03EB04131A7B2AB1ED
S214013FF000241C7320F01FF8204610BD20F01BF88B
S2140140000448FAE70448F8E70448F6E7D52900200B
S2140140109C130020068000F0028000F0018000F072
S214014020154B13B51868002301908DF804301FF066
S214014030FCFF124B1C7824B11FF0FDFF104802B0A4
S21401404010BD01221A701FF0F6FF0E4B01A81C735B
S2140140501C7783F82C4083F83C4083F84C4083F867
S2140140605C4083F86C4083F87C4008238DF8073069
S21401407001F030F82046E2E788FE0300D52900204B
S214014080038000F09C1300200A4A08B512785AB142
S21401409007280BD8084A02EB00131B7B43B100210B
S2140140A001F00AF8002008BD0448FCE70448FAE7D6
S2140140B00448F8E7D52900209C130020028000F070
S2140140C0018000F0078000F00A4A08B512785AB15C
S2140140D007280BD8084A02EB00131B7B43B10121CA
S2140140E000F0EAFF002008BD0448FCE70448FAE7B0
S2140140F00448F8E7D52900209C130020028000F030
S214014100018000F0078000F00A4A08B5127852B123
S21401411007280AD8084A02EB00131B7B3BB101F0C3
S21401412057F8002008BD0548FCE70548FAE70548AA
S214014130F8E700BFD52900209C130020028000F07C
S214014140018000F0078000F00D4B1B7893B1072823
S21401415012D889B10B4B03EB00131B7B73B10A4BCF
S2140141601A6D01238340134214BF0123002300204C
S2140141700B707047054870470548704705487047FB
S214014180D52900209C13002000000450028000F076
S214014190018000F0078000F00B4A10B512780C463B
S2140141A062B107280CD859B1084A02EB00131B7BF1
S2140141B043B101F01FF82070002010BD0448FCE751
S2140141C00448FAE70448F8E7D52900209C130020A4
S2140141D0028000F0018000F0078000F0184B2DE906
S2140141E0F0411F6D5B6D1F4000D5FEE701260025DF
S2140141F0144CDFF85880374218D02368C8F850604E
S214014200A3B1A168284601316268A1609847637B23
S214014210012B0BD150B90C4B03EB45131A7B60F302
S21401422041021A731A7F60F341021A770135082D8D
S2140142304FEA460604F11004DDD1BDE8F08100BF67
S214014240000004509C1300209C1200200020045003
S214014250024B1968024B186816F0CCBBE40A002022
S214014260040B002070B59400224605460E462BF03E
S214014270C7F9431C0AD058B92246314628462AF0C7
S21401428011FA0028034808BF002070BD0248FCE769
S2140142900248FAE710E000F021E000F024E000F028
S2140142A010B504462BF0A8F9431C10D088B901F0CC
S2140142B063F8234620F003002044984201D10020F1
S2140142C010BD53F8042B0132F7D00348F8E7034832
S2140142D0F6E70348F4E700BF0EE000F021E000F047
S2140142E024E000F008B51FF099FE014B186008BDE8
S2140142F00C1B0020014B18681FF094BE0C1B0020FD
S214014300044BD3F88420D206FBD4D3F88400C0F340
S214014310811070470040005038B5104B0546D3F861
S21401432020310C4603F00303022B0BD0032B0DD0D8
S214014330012B0FD1FFF71EFC052305B1286004B140
S214014340236038BDFFF74CFC0323F6E7FFF75EFC5E
S2140143500223F2E701230020EFE700BF00800050B0
S21401436073B50D4600210E4B0191D3F880410646E8
S21401437004F00304012C09D0022C0CD00C460EB11B
S214014380019B336005B12C6002B070BD01A8FFF738
S214014390C3FF0F24F3E7FFF739FC0190EFE700BFF7
S2140143A00080005038B5184B0546D3F824010C465A
S2140143B000F00700062823D8DFE800F0040A121AE6
S2140143C01E0E1600012305B1286004B1236038BD16
S2140143D0FFF7D0FB0523F6E7FFF7CCFB0623F2E752
S2140143E0FFF7FEFB0323EEE7FFF7FAFB0423EAE7FA
S2140143F0FFF70CFC0223E6E71FF0B5FC0723E2E714
S21401440000231846DFE700BF0080005038B5104B88
S2140144100546D3F840310C4603F00303022B0BD0BC
S214014420032B0DD0012B0FD11FF09FFC092305B1E3
S214014430286004B1236038BDFFF7ECFB0823F6E7DC
S2140144401FF096FC0B23F2E701230020EFE700BFE5
S2140144500080005038B5144B0546D3F800020C46D0
S21401446000F0070004281BD8DFE800F003090D114F
S2140144701500012305B1286004B1236038BD1FF083
S21401448074FC0923F6E7FFF7C5FB0823F2E71FF0E4
S2140144906FFC0B23EEE7FFF78DFB0E23800AE9E79F
S2140144A000231846E6E700BF0080005038B5104BE1
S2140144B00546D3F840320C4603F00303022B0BD01B
S2140144C0032B0DD0012B0FD11FF04FFC092305B193
S2140144D0286004B1236038BDFFF79CFB0823F6E78C
S2140144E01FF046FC0B23F2E700231846EFE700BF58
S2140144F00080005038B5104B0546D3F860310C46A5
S21401450003F00303022B0BD0032B0DD0012B0FD18D
S2140145101FF02BFC092305B1286004B1236038BDC8
S214014520FFF778FB0823F6E71FF022FC0B23F2E7E0
S21401453001230020EFE700BF0080005010B40D4CAF
S2140145400B46D4F8204204F00304012C0AD0022CB6
S2140145500CD008B1002101600BB100221A605DF891
S214014560044B70475DF8044BFFF7D6BE5DF8044B6D
S214014570FFF74CBF0080005038B50C4605461FF0CB
S2140145804DFD054B9A6A54402C4054409C62BDE850
S21401459038401FF047BD00BF00C00050B0F5207F77
S2140145A01FD009D8B0F5007F15D003D868B1B0F593
S2140145B0C07F0AD000200CE0B0F5607FFAD10B4B2B
S2140145C0D3F88000C0F3011003E0084B186FC0F366
S2140145D0033001307047054BD3F89000C0F30460F8
S2140145E0F7E7024B186FC0F38020F2E70080005017
S2140145F04FF400320E4B014610B500209A66FFF7C5
S214014600CDFF484341F671320A490B4B884294BFAD
S21401461000200120DC69DA639A6822F4401242EA3B
S21401462000529A60E20344BF0022DA6310BD00BF65
S21401463000900050005A620200000350420910B573
S2140146400FD0012A0FD00A4B0A4C022A18BF234664
S21401465000F01F0049B103F58053012282401A6021
S21401466010BD1346F4E7044BF2E703F50053F4E7F5
S21401467068800050608200506480005008B5802039
S2140146801FF0EEFB034B98429EBF4FF48032024B65
S2140146901A6708BD005A620200A000501FB5002329
S2140146A0B0F5807F019377D028D8382800F0948021
S2140146B00BD82438092810D809280ED8DFE800F0CE
S2140146C0676767670D0D620D377D52285FD008D882
S2140146D03D283BD03E2800F08480019805B05DF867
S2140146E004FB8028F9D1414B1B6F03F00703013B04
S2140146F0032BF2D8DFE803F044413F6CB0F5D06FEE
S2140147005BD019D8B0F5A06F66D00AD8B0F5806F27
S2140147103DD0B0F5906FE0D1002001A9FFF742FE31
S214014720DBE7B0F5B06F2DD0B0F5C06FD5D1002066
S21401473001A9FFF76BFED0E7B0F5006FECD00AD801
S214014740B0F5E06F4DD0B0F5F06FC6D1002001A9ED
S214014750FFF7D0FEC1E7B0F5086FBED1234BD3F803
S214014760003103F00303022B2CD0032B2ED0012B98
S21401477030D1FFF735FA032300E005230193ACE7B8
S2140147800223FBE7002001A9FFF7EAFDA5E70020C9
S21401479001A9FFF7C1FDA0E702934FF0E0231B69D3
S2140147A05B0705D5FFF706FA0C230393039BE5E7A2
S2140147B003A902A8FFF72AFEF8E7002001A9FFF7E0
S2140147C049FE8AE7FFF726FA0823D7E71FF0CBFA58
S2140147D00723D3E70123D1E7002001A9FFF7AEFEA7
S2140147E07BE7002001A9FFF761FE76E70080005015
S2140147F04FF40022034B5A66012203F580439A6266
S214014800704700BF0090005008B5FFF747FF082823
S21401481011D00938012802D94FF6FF7008BD4FF4B0
S2140148200012064B5A6603F5D8335B6ADB07F3D5ED
S2140148304FF4FA70F2E7024B1888EFE70090005049
S214014840D00C0020F8B504468020FFF727FF032888
S21401485000F087804FF40022424B02215A6645F64B
S2140148600E03414AC2F88030404B9962012103F59C
S21401487080539962936DD903FCD4D4E900131B05C8
S21401488043EA0163E17B94F820500B43217BE77EEA
S21401489043EA0143617B6D0143EA0133A17B43EAAD
S2140148A0811313619169D4E904031B0643EA80630B
S2140148B001F000410B43A17E94F823000B43217EB7
S2140148C043EA0143617E43EA01239361136AE66981
S2140148D023F00D0394F8221043EA8703002E2DD10E
S2140148E01362966A94F8213045EA031326F03305DD
S2140148F02B4343F0010393621D4D1B4B9A6D35EA22
S2140149000202FBD10222194DAA621A659A6D520063
S214014910FCD41A69A56822F4700242EA05521A61AB
S2140149204FF00042114B9A6119B9022203F58053E8
S2140149309A6278B901220F4B9A620BE0334343F037
S21401494008031362936A23F0330303432B4343EABA
S2140149504103936294F824301BB1034B064AC3F813
S2140149608020F8BD0090005000C0005000D00050DC
S2140149700300014000E00050F1A7FFFF1E4BFF2897
S21401498070B59E6A35D89A6D12F4803F18BF012122
S2140149901A4A18BF9162022191629B6DDC0303D50E
S2140149A0154A936D9907FCD50222144B124D1A65D0
S2140149B0AC6D14F08044FBD1114AAB6992F900202A
S2140149C023F47F03024423F47F4382F3080243EA7D
S2140149D0002343EA0243AB6131460220FFF7CCFDD8
S2140149E0AB6DDB0303D531460120FFF7C5FD20463D
S2140149F070BD2124FBE700BF00C0005000D000506E
S214014A00D6290020014B93F900007047D6290020D3
S214014A1001221548154B816A9A62826D02F00302E3
S214014A20032AFAD102229A621A650F4A936D5B0035
S214014A30FCD40F48936D30EA0303FBD101220B4BE4
S214014A401A65A3F580539A6D9007FCD49A6D920768
S214014A50FCD50222054B1A65034A936D9B07FCD5CC
S214014A600320FFF789BD00BF00C0005000D00050F2
S214014A7003000100F0B5D0E901434FF480061A4A5D
S214014A804178057856664FF4D156022702F5B832BA
S214014A905662164E4F2977604FF0010728BF4F2107
S214014AA006F5805677601669F603FCD441EA0521BF
S214014AB051611B01417B43EA04230B43017B43EA1B
S214014AC041039360C37B817B1B0143EA4113417C15
S214014AD00B43017C43EA41035360837C13B16FF4BB
S214014AE0D1535362F0BD00BF009000500010025039
S214014AF0014B1880704700BFD00C0020014B188076
S214014B00704700BFCE0C00204FF4001208B5184BBA
S214014B105A660223174A5360936813F48033FBD115
S214014B20012822D1FFF75CF8134B984215D003F504
S214014B30122303F5F863984213D0104B00EB800262
S214014B40400AB3FBF0F3520A0A49CA620B63012317
S214014B504B620022074B5A6008BD45F67A13084A95
S214014B60F2E745F61A03074AEEE75362F1E700BF9C
S214014B70009000500040025000F0490264666666EC
S214014B80D8B80500BBCF0500B0F5207F10B50C46A0
S214014B9042D008D8B0F5007F33D003D888B1B0F53D
S214014BA0C07F0ED010BDB0F5607FFBD11F4A4C1EF2
S214014BB0D2F8803023F0300343EA0413C2F8803081
S214014BC0F0E71FF045F91FF00FFA4FF48031184B4C
S214014BD0164A1967136F013C23F4704343EA043302
S214014BE01367FEF7E7FF0446FFF78AFBC0F10201F1
S214014BF020461FF0F3F900F02DF8BDE81040FFF74E
S214014C003DBD0A4A4C1ED2F8903023F0F85343EAD1
S214014C100463C2F89030C5E7044A4C1E136F23F4B0
S214014C20806343EA84231367BCE700BF008000501B
S214014C300090005008B50121022000F0E7F81FF0AF
S214014C4007F91FF0D1F94FF48032014B1A6708BDFE
S214014C500090005008B54FF4C0701FF001F9BDE890
S214014C6008400449884294BF012102214FF4207074
S214014C70FFF78ABF80F0FA02034B5868C0F30800BA
S214014C80003818BF0120704700ED00E010B5224B38
S214014C9070B94FF40031214A1860516602F5983216
S214014CA05268012A03D11E4AD2F800211A6010BDAB
S214014CB01B68002BFBD01B4A5268012AF7D0184A02
S214014CC08020C2F80031FFF7E9FC05281FD14FF418
S214014CD0C070FFF763FC0128044604D102214FF49B
S214014CE0C070FFF751FF07220F4B1A610122A3F58F
S214014CF080535A600B4A1369DB07FCD5012CD6D1C9
S214014D002146BDE810404FF4C070FFF73DBF0122B9
S214014D10064B5A60CBE700BF101B002000900050E6
S214014D200080005000C0015000E0015000D001504A
S214014D30044A4178536F23F4407343EA01235367CF
S214014D40704700BF0040005010B5044610B1002067
S214014D50FFF79CFF104A136943F00403136103F045
S214014D6049F91FF06BF90D4B0D4AC3F820241FF0CB
S214014D7055F92AF049FC1FF055F91FF060F903F0C8
S214014D8061F91CB9BDE81040FEF714BF0120BDE86B
S214014D901040FFF77BBF00BF00ED00E000E00350CE
S214014DA00000FF0F10B5044610B10020FFF76EFF9C
S214014DB00E4A136943F0040313610D4B0D4AC3F801
S214014DC0202403F017F91FF029F92AF01DFC1FF023
S214014DD029F903F037F91CB9BDE81040FEF7EABE21
S214014DE00120BDE81040FFF751BF00BF00ED00E015
S214014DF000E003500000FF0F034A0179D36E23F051
S214014E0030030B43D366704700400050F8B50446A4
S214014E101C4BD3F88420D106FBD4D3F88430C3F3DB
S214014E2081139C422CD0FEF7ABFE012C064602D124
S214014E3021461FF0D3F81FF0F1F84FF00072124B25
S214014E4007465A6620461FF001F94FF480630D4D60
S214014E50621E93402B676B6E9A0103D4D5F884309B
S214014E609B060AD538461FF0DDF8022C08D13046DD
S214014E70BDE8F84000211FF0B1B8D5F88430EAE764
S214014E80F8BD00BF004000500060005010B50C4651
S214014E9008B9FEF775FE074B21461B783BB1064B5A
S214014EA0984204D80120BDE81040FFF7AFBF0220AA
S214014EB0F9E700BFD7290020005A62020278034BA7
S214014EC0012100201A70FFF7E1BF00BFD72900209B
S214014ED04FF0004238B5264B26495A6601224A60F1
S214014EE04AF6CD3103F50B235D6C1964154030BBD2
S214014EF09968C9070BD4002401221F4B5A6015B1CB
S214014F001E4B1F4A1A6428F048FE204638BD1A492F
S214014F108A601C4AD96ACC0705D4904201D107247D
S214014F20EAE70130F6E79042E5D1F8E70132DC6ABC
S214014F3014F0080406D08A42F8D10724DFE70022DD
S214014F401049F4E78A42F8D020220B4B0B495A62EB
S214014F500122A3F580539A6023460A4A486A8006CE
S214014F6003D49342E9D00133F8E79342C7D1E4E78B
S214014F700090005000500950006009500040095050
S214014F803254FFFF40420F004FF0004238B5174B36
S214014F90174C5A66012203F50C235A604AF6CD33A4
S214014FA0656C2364437893401343124AD363C378F2
S214014FB08178A2689B0043EA011322F0740213432E
S214014FC0A3600279837943EA022323614279C37994
S214014FD043EA022363610078FFF77AFFEB0744BFD9
S214014FE0054B236428F0D9FD012038BD0090005000
S214014FF000400950004000503254FFFFF8B5044607
S2140150000D461F4616464AB101238B403021184AE9
S21401501001FB0022F7B141F21001535004EB4403A7
S214015020072D4FF00F014FEA031316D8A80006FA12
S21401503000F281400F4818441FF009F84EB90123C9
S21401504030210B4AAB4001FB042277B141F210013B
S2140150505350F8BD42F21001DFE7A5F108008000C9
S21401506006FA00F281400448E5E742F21001EFE754
S21401507000C0035004C003500CC003504FF400128C
S2140150800B4B10B5C3F88020BFF34F8FBFF36F8F64
S2140150900024FF22074B21465C6520209A625C6053
S2140150A0FFF7CCFA2146BDE810402120FFF7C6BA2B
S2140150B000E100E000000450044A054B002908BF47
S2140150C01346012282401A60704700BF4010045008
S2140150D04020045010B5012104462020FFF7AEFA07
S2140150E001212120FFF7AAFA0122114B5A602278EA
S2140150F012069A606178A27842EA01429A61FF221A
S2140151009A6200229A631A644FF000425A654FF081
S214015110FF324FF4001103F500531A65054AC2F831
S2140151208011E3781B01DBB282F81533116010BDE4
S2140151300000045000E100E0F8B50125C3B2DFF835
S21401514088C0D1F800E09D408F7ACB7A0C46097B67
S214015150CCF850500CF5005C4CF820E04FF0300EC7
S214015160184E1B050EFB006094F80DC043EA07437A
S21401517043EA415322F00302C0F860C0C3650267E8
S2140151801EF053FF736D2B437365237A13B1336C93
S2140151902B433364637A13B1B36B2B43B363227926
S2140151A0A37943EA0243084A93616179E37943EAC2
S2140151B0014306498B61034B55639D64BDE8F84086
S2140151C01EF039BF000004500020045000100450A7
S2140151D010B50124C0B284401EF027FF044B5A6D5F
S2140151E022EA04025A659C62BDE810401EF023BF05
S2140151F00000045010B50124C0B284401EF015FF13
S214015200074BDA6A224208D15B6B9C430CBF012430
S21401521000241EF010FF204610BD0024F9E700BF51
S214015220000004504FF40032054B9A6641F6713285
S21401523003F51C33DA63012203F50053DA60704785
S2140152400090005041F671320121064BDA6303F5F6
S2140152500052D1600022DA634FF40032A3F518330E
S2140152609A66704700000350CB784A7810B55B0108
S2140152700C7843EA82030A79234343EA02130C2299
S214015280424302F1B0421363012C02BF8A78024BFB
S21401529043F8202010BD00BFE880035008B54FF04A
S2140152A0B0435A686AB958B15B680BB11EF0DFFEAD
S2140152B001210D4B59601EF0DAFE4FF0B043D96064
S2140152C008BD5B680BB11EF0D2FE0028F0D11EF0BF
S2140152D0CEFE4FF0B0430222DA601EF0C8FE012275
S2140152E0024B5A60ECE700BF00100058002000583F
S2140152F04FF0B0414B6810B50BB11EF0B8FE01225D
S2140153000B4BC4785A608378934043EA840344780D
S2140153102343047943EA0413447943EAC4038B60C4
S214015320044B5A600378C3F10203CB6010BD00BF83
S21401533000200058001000584FF48032064B5A6681
S21401534003F5E6235B69C3F38512827003F03F021F
S2140153501B0B42700370704700900050014B986C15
S214015360D96C70470080E00F024B1868C0F3074005
S214015370704700BF0080E00F0120034B9B680A3393
S21401538003F01F03984070470080E00F70B5054694
S21401539016461C4621B94FF420701EF061FD0146E9
S2140153A0402C1BD003D8DCB1202C1BD070BD602C48
S2140153B0FCD1042303FB06F2530803EB4113B3FBB2
S2140153C0F2F3094A203B02EAC303AA6822F060020C
S2140153D0AA60AA681443AC60EB61E7E70623E9E735
S2140153E01023E7E70823E5E7F8FF7F00012200F531
S2140153F080535A6040F6AA6341F2050243610023D6
S2140154000B498360C365C26000F500520361C36146
S214015410C364916407498365884203D10365002309
S214015420436502E004498842F8D00123536070477F
S214015430FFFF010000C005500000065070B50D4684
S214015440FFF7D4FF012300F580567360AB7C04465A
S2140154501BB1836843F080438360EB7C5BB1354AC4
S2140154602B7D944245D1A2F51032C2F88C31E36D02
S21401547043F08003E3652A8A6B7B20461343EA895F
S2140154801343E3602B7BD5E90112FFF77FFF6B7DAA
S2140154901BB1A36843F48033A360AB7D1BB1A36843
S2140154A043F40043A360EB7D2A7E1B07120502F43A
S2140154B0E00203F0E0431343A365697E1D4A8B1E99
S2140154C0012B1D4B1FD894421BD002F580429442FB
S2140154D00CBF01224FF0FF3203EB4213022041F2D0
S2140154E01C620329985020D10423F3652B7863614D
S2140154F070BD124A944204BFA2F52032C2F89C3114
S214015500B5E70022E8E794420DD00C4A94420CBF5E
S21401551001224FF0FF3203EB4213022042F21C62DB
S21401552001299850DFE70022F5E7042204F500532D
S214015530DA65DBE700C0055000C0035000000650E6
S21401554038B50D46FFF752FF012200F580535A6029
S2140155502B8A826843F001031343AA7B044643EA7D
S2140155608223836083682A7D43EA42738360AB7C2F
S2140155705BB11D4AEB7C90422DD1A2F51032C2F8E8
S2140155808C31E36D43F08003E3652B7B2046D5E940
S214015590011243F48053E3601EF071FD6B7B0BB187
S2140155A0102363616B7D1BB1A36843F48033A36052
S2140155B0AB7D1BB1A36843F40043A360EB7D2A7E59
S2140155C01B07120503F0E04302F4E0021343A36550
S2140155D02B78636138BD054A904204BFA2F520329C
S2140155E0C2F89C31CDE700BF00C005500000065050
S2140155F038B50446054D28F0F5FA0FCC0FC594E8EA
S214015600030085E80300002038BD00BF141B0020FE
S21401561047F6FF739A42F0B56FD002296FD8394B1F
S2140156205B5C012B6BD8384DDF0005EBC30415F826
S2140156303330A178012B13D10025E078401AA84217
S21401564002D80844C0B2F0BD431B6668A0EB530302
S21401565036F913609642D4BF1D4603F1FF30EEE7DC
S21401566060680028EFD0B0F90040944204DBB0F93E
S21401567002409442B8BF144683883D44FF2B19BFAD
S214015680C8224FF0280CB0F90620B0F908C0A2EBEA
S21401569004030CBF0126002693FBFCF333446E780B
S2140156A01BB29E4201DD002B01DA731E1BB24FF4C2
S2140156B07A7C01339BB2071D5D1E2DB24FEAC50EE3
S2140156C000EBC505EA88AD689E4214FB025222EA49
S2140156D0E27202F15C02B2FBFCF204DD37F83350F1
S2140156E001339542E8D200EB0E039888904228BF1A
S2140156F01046884238BF0846A4E7FF20A3E70020EB
S214015700A1E700BFADFE0300141B00200229F0B57F
S21401571055D82C4B585C012851D82B4C04EBC001B2
S21401572014F830004B6801280FD1C8788C78904265
S21401573094BFC4EB0001C4EB0201001BCAB2824253
S214015740C8BF002233F91200F0BD002B37D088788D
S214015750904202D3B3F90200F6E7CC78B3F9000021
S2140157609442F1D94C789988013CA1F1FF06714227
S21401577003F10405E4B2714103F10C07CEB2B44261
S21401578016D805EBC1014FF47A756A43B1F90240A8
S2140157904968521A04EBD47102EB610292FBF4F2EF
S2140157A09042D1DBB3F902009042CDDC10B2CBE7D8
S2140157B037F831C04E1C9445E3D33146DEE7034843
S2140157C0C2E700BFADFE0300141B00200080FFFFF0
S2140157D008B50448FFF70CFFBDE80840012028F093
S2140157E005BA00BFE805040000487047D20C002047
S2140157F07FB50222084B0949CDE901234FF000731A
S214015800CDE90313052301A94FF0FF30059328F0D6
S21401581022FA07B05DF804FB006A180000020400D3
S2140158201B0603F0706300F00F000902034301F446
S2140158307061120402F470220B431343014A136091
S214015840704700BF0020025C60B5054619B10139FA
S214015850B1F5806F0FD2094EF06810F48030FBD19D
S21401586043EA012312072B4302F08052134343F00D
S2140158700043736060BD0120FCE700BF0020025CAE
S2140158800122054B9A60DA68D203FCD4D86820F06E
S2140158900F000004000C70470020025C014B1868E2
S2140158A0704700BF0040025C014B5868704700BF5C
S2140158B00010025C014B186B704700BF0010025CC1
S2140158C0014B1868704700BF0010025C014B9860DE
S2140158D0704700BF0010025C014B1864704700BFA0
S2140158E00010025C014B5864704700BF0010025C58
S2140158F0014B5863704700BF0010025C0022014B49
S2140159001A6070470010025C024A136843F00103F4
S214015910136070470010025C024A136823F001030B
S214015920136070470010025C43F20402014B1A60D8
S214015930704700BF0010025C024A136843F0300350
S214015940136070470010025C044B1A6842F48072C0
S2140159501A601A6822F480721A6070470010025C9E
S214015960024A136843F48063136070470010025CB8
S214015970034A136823F4702343EA00431360704715
S2140159800010025C044B1A6902605A6942609A6907
S2140159908260DB69C36070470010025C0268044BDA
S2140159A01A6142685A6182689A61C268DA61704710
S2140159B00010025C024B1A6BD207FCD418627047C7
S2140159C00010025C0322024B186019615A6370478B
S2140159D00000025C82B01FB507930A9B04AC8B42A1
S2140159E028BF0B4604E907001048D100079948BFB5
S2140159F003330160099948BF23F0030323F0704382
S214015A0001F0E041194341F000518160002102F0AC
S214015A10E042019C1A4342F00052C1600461826177
S214015A20416304B0BDE8104002B070470000025C5C
S214015A303F22034B1A631022DA6103229A637047EE
S214015A400000025C024AD36B9B07FCD4704700BF80
S214015A500000025C044B9B6A13F0240F14BF012064
S214015A6000208000704700BF0000025C08B5FFF709
S214015A70F1FF064BDB6B23F47F4323F0EF03034375
S214015A801EBF0122024BC3F8FC2F08BD0000025CBA
S214015A9000F0FF3F4368182B0AD0202B1DD0102B97
S214015AA02BD1174BD3F80434DB010AD401207047FD
S214015AB0134BD3F804349A01F8D50B6843F0080366
S214015AC00B6003680F4A934210D10B6843F0400302
S214015AD00B600023436000207047094BD3F8043461
S214015AE05B01E3D50B6843F00403E9E7064A9342FA
S214015AF0F1D10B6843F08003EAE70720704700BF47
S214015B000000025CD9290020D82900200B4607B5E1
S214015B100749D1F80414C90708D5002100920246A6
S214015B20084600F05BF803B05DF804FB0120FAE7D5
S214015B300000025C1346064AD2F80424D20504D5B6
S214015B400A46014600201EF0CBBC0120704700BF6C
S214015B500000025C13B5084CD4F80444E40508D5EB
S214015B60009313460A460146002000F061F802B091
S214015B7010BD0120FBE700BF0000025C13B5084C16
S214015B80D4F80444E40508D5009313460A460146B2
S214015B90002000F071F802B010BD0120FBE700BF45
S214015BA00000025C70B504460D4616468CB00A4AE3
S214015BB009AB07CA83E807001A462146CDE9056303
S214015BC0CDE90333CDE9013300954FF480301EF063
S214015BD0B3FB0CB070BD00BFB0FE0300F0B51C46B1
S214015BE05B6815468DB01A07129E1AD1CBB1726842
S214015BF0934216D10C4B0D4A53F8217009AB07CAD4
S214015C0083E807001A462946CDE90533CDE9033373
S214015C10CDE90163009447F480701EF08DFB0DB052
S214015C20F0BD0720FBE700BFBCFE0300B0FE03008B
S214015C30F0B516465A688DB0102A0D46129F15D13A
S214015C407A68102A12D10A4A09AC07CA84E8070002
S214015C5022462946CDE90547CDE90344CDE901446D
S214015C60044800961EF068FB0DB0F0BD0720FBE768
S214015C70B0FE030030000100F0B516465A688DB03C
S214015C80102A0D46129F15D17A68102A12D10A4A97
S214015C9009AC07CA84E8070022462946CDE90574FF
S214015CA0CDE90344CDE90144044800961EF044FBC7
S214015CB00DB0F0BD0720FBE7B0FE030010000100A9
S214015CC082B070B586B0149D03AE202D86E807001D
S214015CD00B9359D805EB85038B4203D006236B4300
S214015CE08B4253D10C9BAB4250D10F9BB3EB450F6C
S214015CF04CD1129A934249D1012229462220159B62
S214015D00FFF7A2FD044630BB034606220E210C20F7
S214015D10FFF786FD0123CDE900332B4696E8070001
S214015D201EF09DFA0E230BAA009307CA2B461EF0FF
S214015D30E1F90C23164C00930EAA2B4607CA1EF057
S214015D4009FA636823F07F0343F026036360FFF7D5
S214015D5097FD30B10624204606B0BDE8704002B07B
S214015D607047636823F07F0343F022036360FFF705
S214015D7087FD04460028EDD1062311AA009307CA21
S214015D802B461EF01AFAE6E70124E4E70724E2E7C9
S214015D900020025C70B598B0002843D02C4C08ADAA
S214015DA00FCC0FC50FCC0FC50FCC0FC594E80F0055
S214015DB085E80F006D4604AE04F1100320340FCBC6
S214015DC085E80F0094E80F0086E80F00FFF7BCFD9A
S214015DD00420FFF7CDFDFFF7A7FD3046FFF7DEFDF8
S214015DE0002408AE56F8040B0134FFF7E3FD102C2F
S214015DF0F8D1FFF759FD0328FBD90024FFF77EFDF4
S214015E002646FFF74BFD55F8043B01365840042E55
S214015E1044EA0004F5D12CB1012206200D4B1A707C
S214015E2018B070BDFFF790FD0820FFF74FFD00206A
S214015E30FFF752FD0720FFF755FD4FF40070FFF7FF
S214015E4057FD0820FFF794FDFFF75EFD0020E7E70A
S214015E5098FF0300DB29002008B5FFF775FD012236
S214015E60014B1A7008BD00BFDA2900201FB51EF0CD
S214015E70B6FC044630B1012206240D4B1A702046AA
S214015E8004B010BDFFF70AFD0090FFF707FD019073
S214015E90FFF704FD0290FFF701FD03906846FFF748
S214015EA07DFDFFF7D9FFFFF747FDFFF759FDE6E751
S214015EB0DB29002006289ABF014B185C002070479A
S214015EC0F8FF030030B5154B87B00293144B0390CF
S214015ED0049346F611030D46059300F077F914284E
S214015EE0044616D168461EF024FD4FF0A84303224F
S214015EF002A95A6319601D619A63DA6B9207FCD195
S214015F00142C02D168461EF022FD00F093F90446D7
S214015F1001E00028E9D0204607B030BD2C1B002048
S214015F20040000202DE9F04FB1B005468C469E4690
S214015F30E8466F4EDDF8EC90409C06F1100A4746A5
S214015F4030687168083603C75645B846F7D13E9B98
S214015F5003EB0208C8F1000A0AF00F0AB9F1000FB4
S214015F6000F09D80C9F1000707F00F070121DDF859
S214015F70FCB044F00050C4F11006CDF810B0059105
S214015F800690300200F4F85040F021000790B9F175
S214015F90000F40F08680CDF820D047F00050002D4D
S214015FA000F08480099121210A9041EA07210B9192
S214015FB042F00050CDF830C03D9B08A94FEA0A2CAC
S214015FC00D910E904CF041000F901093002A75D160
S214015FD03E9B119143F0005312933C9B13901493F4
S214015FE010AB1593434B444A169340F6110317938F
S214015FF0424B0021002D08BF1346189314AB19938A
S2140160003F4B10221A9311231B931CAB184628F002
S21401601073FB01221D92002246F0804603461E961F
S214016020239205B9EB46102CCDF880B024AE4BD1A7
S21401603001232246002130462193229428F05CFB5E
S21401604020AB002125938F4218BF334647F080428C
S21401605026923A9A2CA828922993B2FA82F35B09DF
S21401606049EA837310222B912A9328F045FBB9F154
S214016070000F00D028AED04448F080432CA918A8C1
S2140160802D962E93FFF71EFF30B92DB90346A34276
S21401609025D1002818BF2C2031B0BDE8F08F10277D
S2140160A064E7CDF820E049F0005078E7002C3FF493
S2140160B079AF04A9099101210A9076E73E9B0CAAC3
S2140160C011924120129388E7102200213046219335
S2140160D0229428F011FB002CB2D10123B1E703F181
S2140160E0C0026A4412F8C02C01331043CFE700BF48
S2140160F0FFFF030010000020140004001800040035
S21401610004000020F0B5C0299FB0DDE9244557D032
S214016110B1F5807F04D0802948D029201FB0F0BD7A
S21401612001265CB140F2344702941024039604948D
S214016130212401970594069502AC0AE040F2144723
S21401614002941024039604942124059401240197B3
S2140161500695079401251024089409950A92212290
S2140161600B950C940D92174A0AAD0E92164A0F958E
S214016170109242F6110211921293139514941592ED
S21401618001AA1692D3B112AB1793042318931123C5
S214016190199316AB1A901B9340F61103C9081C916C
S2140161A01AA806A91D93FFF78DFEB7E7012614B9B5
S2140161B04FF48267C4E74FF48667B5E70EABE3E7B3
S2140161C00F20ABE7100004001000001038B5164B86
S2140161D05A6E42F004025A66D3F8802242F0010257
S2140161E0C3F88022114B5B68C3F3080343B14FF039
S2140161F0A842D36B13F0430FFBD11424204638BDBD
S2140162004FF0A843DC6B14F04304FBD1084D2B6818
S2140162101BB90421284602F0D7FD2B68013343F051
S21401622000432B60EAE700BF0080005000ED00E06D
S2140162302C1B0020014B00205B68704700ED00E03E
S2140162404FF40052034B00209A660322C3F86022E3
S214016250704700BF009000504FF40052034B0020DF
S2140162609A660322C3F86022704700BF00A0005060
S214016270012300F01F02A0F506200949A0F5506091
S2140162804009934051F820201A4341F8202005493F
S21401629051F8202022EA030241F82020704700BF6F
S2140162A0441B0020301B00200121A0F506230E4AC6
S2140162B0A3F550635B0900F01F00814052F82300EC
S2140162C0014342F823100949D1E9003003448868A4
S2140162D00344C868096903445B1802BFC2E9003376
S2140162E0C2E9023313617047301B0020441B0020B3
S2140162F02DE9F04FA9B003921D4604460822339EAD
S214016300CDE90401414021FA02F34B40980702F11E
S214016310080218BF9B00202A1C44F4D18123B4FB39
S214016320F3F303EBC313E41A734B04F506241B784B
S21401633004F55064002B3ED1FDF78AFF074620B1D5
S2140163406FF0910029B0BDE8F08F0146402208A801
S21401635028F0D2F94022394618A828F0CDF9DFF8FE
S214016360B481DFF8B491C3460BF10F0ACDF800A053
S214016370102208A95B46D9F8000027F0C1F90022CF
S214016380014608F1100808AF914246D1CDF800A0A9
S2140163905B461022D9F8000018A927F0BAF94FF089
S2140163A0000A834618AFD34541D1544B9845DAD1FC
S2140163B00122514B1A704FF0810A4FF00008DFF8A6
S2140163C05CB1A4F50627A7F550635B095BF82320AB
S2140163D004F01F01CA40D2073DD4494A52F823307F
S2140163E0CB40DB072AD5B8F1000F08BFA0468123B2
S2140163F0A7F6FF47B7FBF3F303EBC313FF1A07F543
S2140164000624BAF1010A04F55064DAD1039BBBB144
S214016410B8F1000F14D0444619E057F8040BCDE943
S2140164200612FFF725FF079A06990132ACE757F8DF
S214016430040BFFF739FF0AF1010AB4E7039B13B90E
S2140164406FF08B007EE7B8F1000F18BF4446349B0F
S21401645000201C6076E7329B13B10023329A13604A
S2140164600EB1002333601023DFF8AC9000932A4668
S21401647000232146D9F8000014F02EFC60BB3299A7
S2140164802A68204BC9B99A4206D02146D9F800009D
S21401649014F0BAFC0028D3D1D5E90223DDE90410B3
S2140164A0834208BF8A42A2D1039B002BCFD06B68E0
S2140164B0012BCCD16FF0840044E7102032999A4228
S2140164C00860E2D1002EE7D033462146D9F8000015
S2140164D018AA14F055FC48B10B4B9842D5D00B4B7B
S2140164E09842D2D00A4B9842D6D029E7329A3368DE
S2140164F012689B1A3360CFE7DC2900200071080080
S214016500301B0020105D175EFFDF00F011E000F089
S214016510FEDF00F0006D0800040B0020441B002085
S2140165202DE9F04F87B08246894698461646DDF833
S21401653040B02AB1002B4FD040F26C739A424ED82D
S214016540BBF1010F4ED8002406F110073946012091
S21401655005941EF090FD0546002846D021463A4691
S21401656028F0CAF805ABCDE9014300942B46012279
S21401657050464946FFF7BCFE044680B110F18C0F29
S21401658008BF6FF08D043A460021284628F0B4F87B
S21401659028461EF080FD204607B0BDE8F08F144B5C
S2140165A0C5E902A92B60C5F804B02EB132464146B2
S2140165B005F1100028F0B5F8059E0E483B462A4620
S2140165C03146006814F0F0FA18B93046FFF750FE6D
S2140165D0D9E76FF09104D6E76FF08604DBE76FF03A
S2140165E09104D8E76FF08504D5E76FF08C04D2E705
S2140165F0105D175E040B00202DE9F0438DB0814637
S214016600DDE914780E4615461C469BB1B8F1000F1D
S21401661005D16FF0860630460DB0BDE8F083002F39
S214016620F7D0B7F1005FF4D3C3F1005303F500438D
S2140166309F42EED81022002108A828F05DF800221B
S21401664007AB029305AB019306AB31460093484670
S21401665008ABCDE90522FFF74BFE06460028DAD146
S214016660059BA4B1AB4215D853EA0504D1D1069BCC
S2140166700B48C8F8004000943A46079900682B4436
S21401668014F02AFB002818BF6FF09106C3E7AB424F
S214016690EDD2BEE75B1B9C4228BF1C46E7E700BF66
S2140166A0040B002030B58DB00C46054610220021A3
S2140166B008A828F021F8002207AB029305AB019346
S2140166C006AB21460093284608ABCDE90522FFF725
S2140166D00FFE0446D8B9099B012B1BD0079D104B12
S2140166E02946186814F090FBB8B90122A5F50623CF
S2140166F00C49A3F550635B0905F01F00824051F871
S21401670023004240284641F82320FFF7CDFD2046CE
S2140167100DB030BD6FF08404F9E76FF09104F6E731
S214016720040B0020441B00202DE9F04F89B00746DA
S2140167300E46FFF7C5F8C00709D4042401201EF051
S2140167405BF880B3013CF9D16FF0920028E010228B
S21401675000210DEB020027F0CFFF04A8FFF712F986
S214016760049B002BE9D0059B002BE6D0069B002B53
S214016770E3D0079B002BE0D00025DFF8808008F1EE
S2140167800409B54219D34FF48A74FFF793F800F061
S2140167900E03062B2DD1C30501D5FFF7BDF800204A
S2140167A009B0BDE8F08FFFF785F810F00E03FAD0B8
S2140167B0022BF8D04105DFD5C4E7FFF775F8A6EB45
S2140167C0050A8400544528BF544699E8030000236F
S2140167D08DE80300CDE9054307EB050BCDF810B0B6
S2140167E0029404AAD8F8003007CA1DF0FEFE25441C
S2140167F0C7E724FA03F3DA07A6D5C6E724000400A0
S2140168001FB504A800E90E0011460198FFF78CFF9A
S21401681070B1FFF721FBBFF34F8F0749074BCA68DB
S21401682002F4E0621343CB60BFF34F8F00BFFDE776
S21401683005B05DF804FB00BF00ED00E00400FA05BA
S2140168402DE9F0438BB01746DDE91545DDE9132642
S2140168509C46DDE91738894621B96FF086000BB0F2
S214016860BDE8F083002FF8D00EB9002CF5D11299AF
S21401687009B9002AF1D10DB9002BEED1B8F1000FFC
S214016880EBD0244A944541D10288B2F5105F3DD140
S2140168904288B7EBD20FE0D322F04001802902D024
S2140168A0B2F5807FD9D16CB3AE421CD23219954273
S2140168B019D29C42D1D831462246284627F002FFFB
S2140168C02E4614F00F03C8D1CDE90197CDE9033662
S2140168D0CDE90543CDE907540993FFF7B1FC38B17B
S2140168E06FF09200BBE79C42EBD96FF08900B6E7E8
S2140168F007AA04A901A8FFF709F90546FFF7ACFCAA
S2140169000543EDD10020C8F80040A8E76FF08500E8
S214016910A5E700BF004440042DE9F04FA9B0834627
S21401692017469A460E46DDF8C890DDF8D88029B994
S2140169306FF08603184629B0BDE8F08F002AF7D01D
S214016940B9F1000FF4D0349B002BF1D0B8F1000F51
S214016950EED00024424B0CAD93E8070085E8070013
S2140169603C22214619A8189427F0C6FE338872885F
S21401697003F4E040B0F5804FDAD03A4E3A480BEADD
S214016980060646F01066864263D1B2F5807F60D176
S21401699047F2121293425CD10620344ABAF11F0F15
S2140169A0D3680E940B931369126800FB03F3CDE9C9
S2140169B00C23BDD9339B402BBAD9359B1F2B4BD902
S2140169C009F1010220261292402299F800300F9711
S2140169D0042B18AFCDE91324CDE915721096119446
S2140169E01794A5D1FFF72CFC03460028A2D10B9BD8
S2140169F015AACDE9086305AB07CA83E8070002AB11
S214016A0012AA07CA83E80700DDE910018DE8030032
S214016A100F9B95E80700FFF753F90546FFF71CFCA7
S214016A2055EA000384D13D46349A20AE2C4603CC69
S214016A30B44210605160254602F10802F6D10022E8
S214016A401146B9540132402AFBD12022C8F8002051
S214016A5070E76FF085036DE76FF089036AE700BFA3
S214016A60B0FE03000000FFF600000209C4FE0300AA
S214016A70F0B50E461D468BB0002853D0002951D0E4
S214016A80002A4FD0002B4DD0048804F44F43B3F5B1
S214016A90824F03D06FF085000BB0F0BDE3B224F057
S214016AA0FF04B4F5E24FB0F802C0F3D1122B01D0C7
S214016AB0172BEFD10CF10701B2EBD10F4FEAD1073B
S214016AC033D31D4A04ACBCF5807F07CA84E80700AF
S214016AD0E0D1122B07D1194B1A691B681344CDE973
S214016AE00432002306930023CDE907670993FFF7D5
S214016AF0A7FB0028D0D1124A02AB92E8030083E834
S214016B0003000AAB13E903008DE80300079B94E832
S214016B1007001DF0EFFC0446FFF79EFB204307D15C
S214016B202F60B9E76FF08600B6E76FF08900B3E72C
S214016B306FF09200B0E700BFB0FE0300C4FE030092
S214016B401C0004002DE9F0438FB01D46DDE916C692
S214016B5000285CD000295AD0002A58D0002B56D0E5
S214016B60BCF1000F53D0002E51D0038803F44F44DC
S214016B70B4F5824F51D1DCB223F0FF03B3F5824F57
S214016B8040884AD0122C01D0172C46D1C31DB2EB37
S214016B90D30F4FEAD3083AD34FEA4802571C67454A
S214016BA038D8B0F5807F38D1122C18BF4FF00009C5
S214016BB04FF0000308BF1C4CCDE9081805F1010190
S214016BC014BF4C46D4F80C90CDE90B120A930D93E2
S214016BD0FFF736FBC0B9CDE9058902AB08AA07CA9B
S214016BE083E807000EAB13E903008DE803000B9B57
S214016BF094E807001DF09DFC0446FFF72DFB20439B
S214016C000ED104232B7037600FB0BDE8F0836FF010
S214016C108600F9E76FF08900F6E76FF08500F3E785
S214016C206FF09200F0E700BFC4FE03002DE9F043C9
S214016C3089B00E4615461F46DDF8488020B96FF02C
S214016C40860009B0BDE8F0830029F8D0002AF6D006
S214016C50B8F1000FF3D0038803F44F42B2F5824F28
S214016C6002D06FF08500ECE7DAB2122A01D0172ABB
S214016C70F7D123F0FF03B3F5E24F41D14488C8F8BA
S214016C80004044B9EB00B3F5807FC8F80030E8D186
S214016C90122A0DD108E0E31DB5EBD30FCFD1B4F521
S214016CA0807FDED1122A29D1354B1C681B691C4412
S214016CB00023194670192C4414F801CD10F8012D43
S214016CC01143B2EB0C020CBF4FF0FF3C4FF0000C2F
S214016CD086420CEA030343EA0203EDD10029AED053
S214016CE0002BACDA109B9D4246D82A4631463846E0
S214016CF027F017FD119B00201D60A2E70024D7E7AF
S214016D003378042B9BD16B1EDB005B08B3F5807FC9
S214016D10C8F80030A5D1122A06F1010318BF4FF0BA
S214016D2000094FF0400205934FF000030ABF144CD0
S214016D304C46D4F80C90CDE90623FFF781FA0028DB
S214016D407FF47FAFCDF80C90D8F800300733DB081E
S214016D50029308AB13E903008DE80300059B94E852
S214016D6007001DF093FC0446FFF776FA00287FF42F
S214016D7068AF002CB6D062E76FF0890061E700BF0C
S214016D80C4FE03000388B3F5105F0ED14388DB0809
S214016D90103B102B0CD8084A22FA03F313F0010F0C
S214016DA014BF00206FF0860070476FF085007047B3
S214016DB06FF08600704700BF010101002DE9F04F1A
S214016DC08FB01546DDE918A91E46DDF868801C9FC0
S214016DD009B300B3B8F1000F1DD0E7B1BAF1000F47
S214016DE002D1B9F1000F16D1274B26F47E129A4232
S214016DF0B0F802B044D1FFF7C5FF0446A8BBB5EB17
S214016E00DB0F4FEADB0306D316F47C1FC6F30545FA
S214016E1004D0102D03D96FF0860426E010251B9AA6
S214016E2095422AD8CDE9011300231022CDE9059316
S214016E300DF12809CDE9033ACDE90823CDF81C90D8
S214016E40FFF7FEF9044680B907AA04A901A8FEF7D0
S214016E5071FE0646FFF700FA044656B958B92A46A7
S214016E604946404627F05DFC3D6020460FB0BDE830
S214016E70F08F6FF092040025F6E76FF08904F4E7CF
S214016E806FF08504F1E700BF0002C0032DE9F04171
S214016E90069F0C461646054610B309B302B9FBB960
S214016EA06288B3EBD20F4FEAD20819D34C220021E5
S214016EB0284627F021FC0D4B27F47E129A4212D168
S214016EC02046FFF75FFF044638B942463146281D83
S214016ED027F027FCC5F824802F602046BDE8F08106
S214016EE06FF08604F9E76FF08504F6E70002C00349
S214016EF02DE9F0410E4614460546002840D00029EB
S214016F003ED092B10368214823F47E1383423AD1DE
S214016F10AF6BF7B1C7F1100807F1280042452844C6
S214016F2006D2274427F0FDFBAF630020BDE8F081C1
S214016F30424627F0F6FB1022103C3C19AA63F4D017
S214016F40284605F128011DF04AFD0028EED14644E9
S214016F50A863102C0CD9671E27F00F073A46314656
S214016F6028461DF03CFD0028E0D1E41BDDD03E4460
S214016F702246314605F1280027F0D3FBAC63D4E75F
S214016F806FF08600D2E76FF08800CFE70002C003FB
S214016F902DE9F04388461F4605468BB070B169B1AE
S214016FA063B10368234923F47E1088423ED113F46B
S214016FB07C1FC3F3054604D0102E03D96FF0860458
S214016FC02AE0102696422BD8FFF73AF9044618BB5A
S214016FD0AB6B05F12802CDE901236B6A2A1DCDE9C9
S214016FE004231023CDE9083007AB1A460390069018
S214016FF005F13C0901A904A8CDF81C90FEF7BEFDD9
S2140170000546FFF729F904466DB928B932464946BF
S214017010404627F086FB3E6020460BB0BDE8F08375
S2140170206FF08904F8E76FF09204F5E76FF08504D6
S214017030F2E700BF0002C00307B56B46054A1068B9
S214017040516803C36846FDF79FFF002003B05DF853
S21401705004FB00BF3000040013B50024064A68464E
S214017060536F43F00103536700948DF80440FDF716
S214017070C3FE204602B010BD0040005030B58BB0B4
S2140170806C46174D0FCD0FC40FCD0FC495E8030006
S21401709084E80300134BD3F84C2112031CD5A3F547
S2140170A0FE431C884FF6FF739C4208BF8C248DF864
S2140170B01940FDF7A7FC204480F308008DF818005E
S2140170C00948FCF793FD6846FDF7BCFB3220FDF747
S2140170D015FD00200BB030BDD3F85041E4B2E6E711
S2140170E0380004000080E00F00F0490230B5094D79
S2140170F087B001AC0FCD0FC42B6801A823601923FC
S2140171008DF80530FDF7B6FC3220FDF7F1FC0020C6
S21401711007B030BD600004006FF00403502110B5C5
S2140171200A480B4C13F0800F03F1010207D12344E8
S214017130402A83F800131346F4D1002010BD03F053
S2140171400F03043B034419761346EBE700ED00E01A
S21401715000E100E010B504461CF060FF024B1C6025
S2140171601CF060FF002010BD581B002010B51CF05D
S21401717055FF034B1C681CF055FF204610BD00BF91
S214017180581B0020034B022218680023806819460A
S2140171901BF00ABA080C002030B51446054687B025
S2140171A010461DF0F4FC6369024683423CBFD4E9F5
S2140171B003315B181B1A7BB10F490494039100211C
S2140171C0CDE90131012300932846D4E900131CF0D0
S2140171D0F0FD002007B030BD0122627694F82D2024
S2140171E0002AF6D084F835301321E3692046984703
S2140171F02046636A9847ECE7997101002DE9F0474C
S21401720088B004460F46164698461CF00EFF814687
S214017210002E7AD0237E03F0FF02002B00F0A2801E
S21401722020461DF0B4FC6569A84205D1637ED4E909
S214017230033213445D1B01E0F9D9451BB54228BF53
S21401724035461CF0F2FE94F82D308246002B6DD1A7
S2140172502A463846616927F064FA63692E462B444C
S214017260636121E0037803F0FD0111295BD1216BF5
S214017270814205D1A3F111014B424B4184F83430D0
S214017280013E6369216B01328B4203F1010308BFA2
S2140172902363636195426069E4D1D4E90323216BDA
S2140172A01344994200D122630025D4E9032361697E
S2140172B01344994208BF6261207A6576FCF7E4FEC2
S2140172C020461DF064FC6369834232D1257694F82A
S2140172D02D30E568656103B125632046636A9847EA
S2140172E0214B049403930023029323692A460193B6
S2140172F00123009363682168207A1CF05AFD207AE6
S214017300FCF7E2FE50461CF096FE4846C8F80060C0
S2140173101CF091FED8F80030002B0CBF1B2000207B
S21401732008B0BDE8F08707F8013BAAE72E46002221
S214017330B0E70123207A23760DF11E01FCF72CFF1E
S2140173409DF81E30002BDAD00DF11F01207AFCF7D4
S214017350FBFE9DF81F100029D1D12246207AFFF7A7
S2140173601BFFCCE71646D0E799710100002807DB22
S21401737001234109034A00F01F00834042F82130EF
S214017380704700BF00E100E0002808DB0122430946
S214017390034900F01F008240603341F82320704704
S2140173A000E100E070B504460568FFF7DFFE8442A1
S2140173B002D10020FFF7CEFE95F936603046FFF782
S2140173C0E3FF002E0CDB01221949730906F01F06A4
S2140173D0B240203341F82320BFF34F8FBFF36F8FA6
S2140173E095F937603046FFF7CFFF002E0CDB012200
S2140173F00F49730906F01F06B240203341F82320D7
S214017400BFF34F8FBFF36F8F287AFCF77DFE287A84
S214017410FCF7E0FDFCF7BCFD00232846C4E9003379
S214017420C4E90433A360AB6ABDE87040184700BFE7
S21401743000E100E02DE9F0430C461546064687B00C
S2140174404022002120461F4627F056F995E8030002
S21401745000232A692376EB6884E80300C4E9042341
S2140174602A7DE36084F82C20AA7D2363012384F817
S214017470343084F835300E9B84F82D2023620F9B20
S214017480E7616362109BA3622B7A84F836306B7ACD
S21401749084F837302D4B346073602D4BB3602D4B21
S2140174A033612D4B73612D4BF360FCF7B9FD38B199
S2140174B02B4B984204D01024204607B0BDE8F08339
S2140174C0002104F10800FCF733FD07460028F2D13D
S2140174D04FF00108234B3362234B84F83C80B361A1
S2140174E0224BF3619DF8483084F8390084F83B302C
S2140174F09DF84430204684F83A30697D84F8388017
S2140175001DF055FB95F909904846FFF73DFF4846A3
S214017510FFF72CFF164B0494CDE902732369CDE9DE
S21401752000836368E2682168207A1CF042FC044606
S2140175300028C0D195F908502846FFF725FF2846B0
S214017540FFF714FF3046FFF705FEB5E7FF4B0300D4
S214017550FD7101007D4B0300834B0300A573010001
S214017560038000F0574B0300AF4B0300894B030029
S214017570997101002DE9F04101271C46584B86B050
S2140175800293584B0C9D0193574B904600930A4625
S214017590CDE903772946554BFFF74CFF06460028F1
S2140175A040F09680236839462B6463683A206B6402
S2140175B0637A85F84930237A85F84830E37A85F886
S2140175C04B30A37A85F84A30637B85F84D30237BB0
S2140175D085F84C30E37B85F84F30A37B85F84E3039
S2140175E0FDF72CF83B460422617A207AFDF706FD6A
S2140175F03B460222E17AA07AFDF700FD3946606833
S214017600FDF71CF888F8006041462068FDF716FF74
S2140176101422637C5B0103F1A04303F57033C3F8C6
S2140176201C26617A227A42EA0142C3F83426E17ABC
S214017630A27A42EA0142C3F82C2685F8506098F8EF
S2140176401930032B4AD8DFE803F03447021C022323
S21401765085F8503000230422E17BA07BFDF7CEFCA9
S214017660022741F21C61627C214B03EB421047501A
S214017670E07BA17BB13241EA004103EB4213996002
S21401768017E0012785F8503002220023617B207B1A
S214017690FDF7B4FC637B227B617C42EA0342154B17
S2140176A049015A500422236803F58053DA65002FF6
S2140176B0D0D1237A2A6C85F84830637A052185F87B
S2140176C04930D36C206843F00403D3641CF0E7FC14
S2140176D0304606B0BDE8F0810027D3E72326F7E75A
S2140176E02D4D0300214D0300B94D0300AD4D0300A0
S2140176F000C0035024D60350BFF35F8F074B5A6A6E
S21401770022F480325A62D3F8942022F00102C3F8A0
S2140177109420BFF34F8FBFF36F8F704700ED00E0EB
S21401772070B52948294CFFF7E7FF8442284D2949BF
S21401773019D1D5F8C03023F0FF0343F0A003C5F8F4
S214017740C0304FF080430A68214D234EC5F898207B
S21401775043F0010301328442C5F89C60C5F8A030AD
S2140177600A601ED00DE0D5F8C02020F01F03203B94
S21401777022F0FF0242F0A002B3F1005FC5F8C0207C
S214017780E1D2164B0A68124823F01F0343F00303A5
S214017790C0F89820C0F89C30114B0132C0F8A030D8
S2140177A00A60BFF35F8F0522094BC3F894205A6A1B
S2140177B042F480325A62BFF34F8FBFF36F8FBFF32D
S2140177C04F8FBFF36F8F70BD040D0020DC0E0020BD
S2140177D000ED00E05C1B002003000020FB0E0020F3
S2140177E0E1FFFF3FF8B51446FFF786FF1F2C27D9A8
S2140177F00027C2062A4D1CBF20F01F0020302A6831
S214017800CB06284B18BF21F01F01FCB2A2422BD891
S214017810D3F8C04020F01F0024F47F4444F4807461
S21401782021F01F01C3F8C04040F00300C3F89820C0
S21401783041F003010132C3F89C00C3F8A0102A608E
S2140178400020BFF35F8F0522164BC3F894205A6AB7
S21401785042F480325A62BFF34F8FBFF36F8FBFF38C
S2140178604F8FBFF36F8FF8BDC3F89840D3F89C4095
S214017870D3F8A06024F01F04A04226F01F0601D111
S214017880B142DDD0B04201D8A14207D2D3F8984028
S214017890013724F0FF04C3F89840B6E72820D0E764
S2140178A05C1B002000ED00E0BFF34F8F0549064B3F
S2140178B0CA6802F4E0621343CB60BFF34F8F00BF88
S2140178C0FDE700BF00ED00E00400FA05054B1A785D
